{
    "contractName": "RFIDContract",
    "abi": [
        {
            "anonymous": false,
            "inputs": [
                {
                    "indexed": false,
                    "internalType": "string",
                    "name": "rfidTag",
                    "type": "string"
                },
                {
                    "indexed": false,
                    "internalType": "string",
                    "name": "location",
                    "type": "string"
                },
                {
                    "indexed": false,
                    "internalType": "uint256",
                    "name": "timestamp",
                    "type": "uint256"
                }
            ],
            "name": "LocationUpdated",
            "type": "event"
        },
        {
            "inputs": [
                {
                    "internalType": "string",
                    "name": "_rfidTag",
                    "type": "string"
                },
                {
                    "internalType": "string",
                    "name": "_location",
                    "type": "string"
                }
            ],
            "name": "updateLocation",
            "outputs": [],
            "stateMutability": "nonpayable",
            "type": "function"
        },
        {
            "inputs": [
                {
                    "internalType": "string",
                    "name": "_rfidTag",
                    "type": "string"
                }
            ],
            "name": "getLocation",
            "outputs": [
                {
                    "internalType": "string",
                    "name": "",
                    "type": "string"
                },
                {
                    "internalType": "uint256",
                    "name": "",
                    "type": "uint256"
                }
            ],
            "stateMutability": "view",
            "type": "function",
            "constant": true
        }
    ],
    "bytecode": "0x608060405234801561001057600080fd5b506108a3806100206000396000f3fe608060405234801561001057600080fd5b50600436106100365760003560e01c8063735a47741461003b578063f6ddac741461006c575b600080fd5b6100556004803603810190610050919061036e565b610088565b60405161006392919061044f565b60405180910390f35b6100866004803603810190610081919061047f565b610163565b005b60606000808360405161009b9190610533565b90815260200160405180910390206001016000846040516100bc9190610533565b9081526020016040518091039020600201548180546100da90610579565b80601f016020809104026020016040519081016040528092919081815260200182805461010690610579565b80156101535780601f1061012857610100808354040283529160200191610153565b820191906000526020600020905b81548152906001019060200180831161013657829003601f168201915b5050505050915091509150915091565b60405180606001604052808381526020018281526020014281525060008360405161018e9190610533565b908152602001604051809103902060008201518160000190816101b19190610756565b5060208201518160010190816101c79190610756565b50604082015181600201559050507fe046533fc91597b510779256ad0ca2452c9ca2895ac9ce2515439c7f5d6820f482824260405161020893929190610828565b60405180910390a15050565b6000604051905090565b600080fd5b600080fd5b600080fd5b600080fd5b6000601f19601f8301169050919050565b7f4e487b7100000000000000000000000000000000000000000000000000000000600052604160045260246000fd5b61027b82610232565b810181811067ffffffffffffffff8211171561029a57610299610243565b5b80604052505050565b60006102ad610214565b90506102b98282610272565b919050565b600067ffffffffffffffff8211156102d9576102d8610243565b5b6102e282610232565b9050602081019050919050565b82818337600083830152505050565b600061031161030c846102be565b6102a3565b90508281526020810184848401111561032d5761032c61022d565b5b6103388482856102ef565b509392505050565b600082601f83011261035557610354610228565b5b81356103658482602086016102fe565b91505092915050565b6000602082840312156103845761038361021e565b5b600082013567ffffffffffffffff8111156103a2576103a1610223565b5b6103ae84828501610340565b91505092915050565b600081519050919050565b600082825260208201905092915050565b60005b838110156103f15780820151818401526020810190506103d6565b60008484015250505050565b6000610408826103b7565b61041281856103c2565b93506104228185602086016103d3565b61042b81610232565b840191505092915050565b6000819050919050565b61044981610436565b82525050565b6000604082019050818103600083015261046981856103fd565b90506104786020830184610440565b9392505050565b600080604083850312156104965761049561021e565b5b600083013567ffffffffffffffff8111156104b4576104b3610223565b5b6104c085828601610340565b925050602083013567ffffffffffffffff8111156104e1576104e0610223565b5b6104ed85828601610340565b9150509250929050565b600081905092915050565b600061050d826103b7565b61051781856104f7565b93506105278185602086016103d3565b80840191505092915050565b600061053f8284610502565b915081905092915050565b7f4e487b7100000000000000000000000000000000000000000000000000000000600052602260045260246000fd5b6000600282049050600182168061059157607f821691505b6020821081036105a4576105a361054a565b5b50919050565b60008190508160005260206000209050919050565b60006020601f8301049050919050565b600082821b905092915050565b60006008830261060c7fffffffffffffffffffffffffffffffffffffffffffffffffffffffffffffffff826105cf565b61061686836105cf565b95508019841693508086168417925050509392505050565b6000819050919050565b600061065361064e61064984610436565b61062e565b610436565b9050919050565b6000819050919050565b61066d83610638565b6106816106798261065a565b8484546105dc565b825550505050565b600090565b610696610689565b6106a1818484610664565b505050565b5b818110156106c5576106ba60008261068e565b6001810190506106a7565b5050565b601f82111561070a576106db816105aa565b6106e4846105bf565b810160208510156106f3578190505b6107076106ff856105bf565b8301826106a6565b50505b505050565b600082821c905092915050565b600061072d6000198460080261070f565b1980831691505092915050565b6000610746838361071c565b9150826002028217905092915050565b61075f826103b7565b67ffffffffffffffff81111561077857610777610243565b5b6107828254610579565b61078d8282856106c9565b600060209050601f8311600181146107c057600084156107ae578287015190505b6107b8858261073a565b865550610820565b601f1984166107ce866105aa565b60005b828110156107f6578489015182556001820191506020850194506020810190506107d1565b86831015610813578489015161080f601f89168261071c565b8355505b6001600288020188555050505b505050505050565b6000606082019050818103600083015261084281866103fd565b9050818103602083015261085681856103fd565b90506108656040830184610440565b94935050505056fea2646970667358221220d560114c0cb7da4af11319d3b1f14b153d75cb5a78b9e74842b069f90d2e290264736f6c63430008130033",
    "immutableReferences": {},
    "source": "// SPDX-License-Identifier: MIT\r\npragma solidity ^0.8.19;\r\n\r\ncontract RFIDContract {\r\n    struct RFIDEntry {\r\n        string rfidTag;\r\n        string location;\r\n        uint256 timestamp;\r\n    }\r\n\r\n    mapping(string => RFIDEntry) private rfidData;\r\n    event LocationUpdated(string rfidTag, string location, uint256 timestamp);\r\n\r\n    function updateLocation(string memory _rfidTag, string memory _location) public {\r\n        rfidData[_rfidTag] = RFIDEntry(_rfidTag, _location, block.timestamp);\r\n        emit LocationUpdated(_rfidTag, _location, block.timestamp);\r\n    }\r\n\r\n    function getLocation(string memory _rfidTag) public view returns (string memory, uint256) {\r\n        return (rfidData[_rfidTag].location, rfidData[_rfidTag].timestamp);\r\n    }\r\n}\r\n",
    "sourcePath": "E:\\temp flutter\\sample\\tempcontract\\contracts\\temp.sol",
    "compiler": {
        "name": "solc",
        "version": "0.8.19+commit.7dd6d404.Emscripten.clang"
    },
    "schemaVersion": "3.4.16",
    "updatedAt": "2025-02-12T16:43:32.228Z",
    "networkType": "ethereum",
    "devdoc": {
        "kind": "dev",
        "methods": {},
        "version": 1
    },
    "userdoc": {
        "kind": "user",
        "methods": {},
        "version": 1
    }
}