{
  "contractName": "BloodLink",
  "abi": [
    {
      "anonymous": false,
      "inputs": [
        {
          "indexed": true,
          "internalType": "uint256",
          "name": "requestId",
          "type": "uint256"
        },
        {
          "indexed": true,
          "internalType": "address",
          "name": "donor",
          "type": "address"
        }
      ],
      "name": "RequestStatusChanged",
      "type": "event"
    },
    {
      "anonymous": false,
      "inputs": [
        {
          "indexed": true,
          "internalType": "address",
          "name": "patient",
          "type": "address"
        },
        {
          "indexed": true,
          "internalType": "address",
          "name": "donor",
          "type": "address"
        },
        {
          "indexed": false,
          "internalType": "enum helper.bgrp",
          "name": "bloodGroup",
          "type": "uint8"
        }
      ],
      "name": "bloodRequested",
      "type": "event"
    },
    {
      "anonymous": false,
      "inputs": [
        {
          "indexed": false,
          "internalType": "string",
          "name": "_place",
          "type": "string"
        },
        {
          "indexed": false,
          "internalType": "string",
          "name": "date",
          "type": "string"
        },
        {
          "indexed": false,
          "internalType": "enum helper.status",
          "name": "_status",
          "type": "uint8"
        }
      ],
      "name": "donateb",
      "type": "event"
    },
    {
      "anonymous": false,
      "inputs": [
        {
          "indexed": true,
          "internalType": "address",
          "name": "_address",
          "type": "address"
        },
        {
          "indexed": false,
          "internalType": "string",
          "name": "_name",
          "type": "string"
        },
        {
          "indexed": false,
          "internalType": "string",
          "name": "_gender",
          "type": "string"
        },
        {
          "indexed": false,
          "internalType": "enum helper.bgrp",
          "name": "_bloodgroup",
          "type": "uint8"
        },
        {
          "indexed": false,
          "internalType": "uint256",
          "name": "_contact",
          "type": "uint256"
        }
      ],
      "name": "regD",
      "type": "event"
    },
    {
      "inputs": [],
      "name": "admin",
      "outputs": [
        {
          "internalType": "address",
          "name": "",
          "type": "address"
        }
      ],
      "stateMutability": "view",
      "type": "function",
      "constant": true
    },
    {
      "inputs": [],
      "name": "bloodRequestCount",
      "outputs": [
        {
          "internalType": "uint256",
          "name": "",
          "type": "uint256"
        }
      ],
      "stateMutability": "view",
      "type": "function",
      "constant": true
    },
    {
      "inputs": [
        {
          "internalType": "uint256",
          "name": "",
          "type": "uint256"
        }
      ],
      "name": "bloodRequests",
      "outputs": [
        {
          "internalType": "uint256",
          "name": "id",
          "type": "uint256"
        },
        {
          "internalType": "address",
          "name": "patient",
          "type": "address"
        },
        {
          "internalType": "address",
          "name": "donor",
          "type": "address"
        },
        {
          "internalType": "string",
          "name": "patientName",
          "type": "string"
        },
        {
          "internalType": "string",
          "name": "patientContact",
          "type": "string"
        },
        {
          "internalType": "enum helper.bgrp",
          "name": "requestedBloodGroup",
          "type": "uint8"
        },
        {
          "internalType": "enum helper.requestStatus",
          "name": "Status",
          "type": "uint8"
        }
      ],
      "stateMutability": "view",
      "type": "function",
      "constant": true
    },
    {
      "inputs": [
        {
          "internalType": "address",
          "name": "",
          "type": "address"
        },
        {
          "internalType": "uint256",
          "name": "",
          "type": "uint256"
        }
      ],
      "name": "donations",
      "outputs": [
        {
          "internalType": "string",
          "name": "place",
          "type": "string"
        },
        {
          "internalType": "string",
          "name": "date",
          "type": "string"
        },
        {
          "internalType": "enum helper.status",
          "name": "Status",
          "type": "uint8"
        }
      ],
      "stateMutability": "view",
      "type": "function",
      "constant": true
    },
    {
      "inputs": [
        {
          "internalType": "uint256",
          "name": "",
          "type": "uint256"
        }
      ],
      "name": "donorAddresses",
      "outputs": [
        {
          "internalType": "address",
          "name": "",
          "type": "address"
        }
      ],
      "stateMutability": "view",
      "type": "function",
      "constant": true
    },
    {
      "inputs": [],
      "name": "donor_end",
      "outputs": [
        {
          "internalType": "uint256",
          "name": "",
          "type": "uint256"
        }
      ],
      "stateMutability": "view",
      "type": "function",
      "constant": true
    },
    {
      "inputs": [
        {
          "internalType": "address",
          "name": "",
          "type": "address"
        }
      ],
      "name": "donors",
      "outputs": [
        {
          "internalType": "uint8",
          "name": "id",
          "type": "uint8"
        },
        {
          "internalType": "string",
          "name": "name",
          "type": "string"
        },
        {
          "internalType": "string",
          "name": "gender",
          "type": "string"
        },
        {
          "internalType": "enum helper.bgrp",
          "name": "bloodgroup",
          "type": "uint8"
        },
        {
          "internalType": "enum helper.ctry",
          "name": "country",
          "type": "uint8"
        },
        {
          "internalType": "enum helper.state",
          "name": "State",
          "type": "uint8"
        },
        {
          "internalType": "uint256",
          "name": "contact",
          "type": "uint256"
        },
        {
          "internalType": "bool",
          "name": "isavailable",
          "type": "bool"
        },
        {
          "internalType": "bool",
          "name": "isverified",
          "type": "bool"
        }
      ],
      "stateMutability": "view",
      "type": "function",
      "constant": true
    },
    {
      "inputs": [
        {
          "internalType": "string",
          "name": "_bg",
          "type": "string"
        }
      ],
      "name": "getBloodGroupEnum",
      "outputs": [
        {
          "internalType": "enum helper.bgrp",
          "name": "",
          "type": "uint8"
        }
      ],
      "stateMutability": "pure",
      "type": "function",
      "constant": true
    },
    {
      "inputs": [
        {
          "internalType": "string",
          "name": "_ctry",
          "type": "string"
        }
      ],
      "name": "getCountryEnum",
      "outputs": [
        {
          "internalType": "enum helper.ctry",
          "name": "",
          "type": "uint8"
        }
      ],
      "stateMutability": "pure",
      "type": "function",
      "constant": true
    },
    {
      "inputs": [
        {
          "internalType": "uint256",
          "name": "id",
          "type": "uint256"
        }
      ],
      "name": "getDonorAddressById",
      "outputs": [
        {
          "internalType": "address",
          "name": "",
          "type": "address"
        }
      ],
      "stateMutability": "view",
      "type": "function",
      "constant": true
    },
    {
      "inputs": [
        {
          "internalType": "string",
          "name": "_st",
          "type": "string"
        }
      ],
      "name": "getStateEnum",
      "outputs": [
        {
          "internalType": "enum helper.state",
          "name": "",
          "type": "uint8"
        }
      ],
      "stateMutability": "pure",
      "type": "function",
      "constant": true
    },
    {
      "inputs": [
        {
          "internalType": "string",
          "name": "_status",
          "type": "string"
        }
      ],
      "name": "getStatus",
      "outputs": [
        {
          "internalType": "enum helper.status",
          "name": "",
          "type": "uint8"
        }
      ],
      "stateMutability": "pure",
      "type": "function",
      "constant": true
    },
    {
      "inputs": [
        {
          "internalType": "uint256",
          "name": "",
          "type": "uint256"
        }
      ],
      "name": "hospitals",
      "outputs": [
        {
          "internalType": "address",
          "name": "",
          "type": "address"
        }
      ],
      "stateMutability": "view",
      "type": "function",
      "constant": true
    },
    {
      "inputs": [
        {
          "internalType": "uint256",
          "name": "",
          "type": "uint256"
        }
      ],
      "name": "suppliers",
      "outputs": [
        {
          "internalType": "address",
          "name": "",
          "type": "address"
        }
      ],
      "stateMutability": "view",
      "type": "function",
      "constant": true
    },
    {
      "inputs": [],
      "name": "userCount",
      "outputs": [
        {
          "internalType": "uint8",
          "name": "",
          "type": "uint8"
        }
      ],
      "stateMutability": "view",
      "type": "function",
      "constant": true
    },
    {
      "inputs": [
        {
          "internalType": "address",
          "name": "_address",
          "type": "address"
        },
        {
          "internalType": "string",
          "name": "_name",
          "type": "string"
        },
        {
          "internalType": "string",
          "name": "_gender",
          "type": "string"
        },
        {
          "internalType": "string",
          "name": "_bloodgroup",
          "type": "string"
        },
        {
          "internalType": "uint256",
          "name": "_contact",
          "type": "uint256"
        },
        {
          "internalType": "string",
          "name": "_country",
          "type": "string"
        },
        {
          "internalType": "string",
          "name": "_state",
          "type": "string"
        }
      ],
      "name": "registerDonor",
      "outputs": [],
      "stateMutability": "nonpayable",
      "type": "function"
    },
    {
      "inputs": [
        {
          "internalType": "address",
          "name": "_address",
          "type": "address"
        }
      ],
      "name": "donateHistory",
      "outputs": [
        {
          "components": [
            {
              "internalType": "string",
              "name": "place",
              "type": "string"
            },
            {
              "internalType": "string",
              "name": "date",
              "type": "string"
            },
            {
              "internalType": "enum helper.status",
              "name": "Status",
              "type": "uint8"
            }
          ],
          "internalType": "struct BloodLink.Hist[]",
          "name": "",
          "type": "tuple[]"
        }
      ],
      "stateMutability": "view",
      "type": "function",
      "constant": true
    },
    {
      "inputs": [
        {
          "internalType": "address",
          "name": "_donor",
          "type": "address"
        }
      ],
      "name": "getApprovedRequests",
      "outputs": [
        {
          "components": [
            {
              "internalType": "uint256",
              "name": "id",
              "type": "uint256"
            },
            {
              "internalType": "address",
              "name": "patient",
              "type": "address"
            },
            {
              "internalType": "address",
              "name": "donor",
              "type": "address"
            },
            {
              "internalType": "string",
              "name": "patientName",
              "type": "string"
            },
            {
              "internalType": "string",
              "name": "patientContact",
              "type": "string"
            },
            {
              "internalType": "enum helper.bgrp",
              "name": "requestedBloodGroup",
              "type": "uint8"
            },
            {
              "internalType": "enum helper.requestStatus",
              "name": "Status",
              "type": "uint8"
            }
          ],
          "internalType": "struct BloodLink.BloodRequest[]",
          "name": "",
          "type": "tuple[]"
        }
      ],
      "stateMutability": "view",
      "type": "function",
      "constant": true
    },
    {
      "inputs": [
        {
          "internalType": "uint256",
          "name": "requestId",
          "type": "uint256"
        },
        {
          "internalType": "bool",
          "name": "accept",
          "type": "bool"
        }
      ],
      "name": "respondToRequest",
      "outputs": [],
      "stateMutability": "nonpayable",
      "type": "function"
    },
    {
      "inputs": [
        {
          "internalType": "string",
          "name": "_bloodgroup",
          "type": "string"
        },
        {
          "internalType": "string",
          "name": "_country",
          "type": "string"
        },
        {
          "internalType": "string",
          "name": "_state",
          "type": "string"
        },
        {
          "internalType": "bool",
          "name": "_isavailable",
          "type": "bool"
        },
        {
          "internalType": "bool",
          "name": "_isverified",
          "type": "bool"
        }
      ],
      "name": "getEligibleDonors",
      "outputs": [
        {
          "components": [
            {
              "internalType": "uint8",
              "name": "id",
              "type": "uint8"
            },
            {
              "internalType": "string",
              "name": "name",
              "type": "string"
            },
            {
              "internalType": "string",
              "name": "gender",
              "type": "string"
            },
            {
              "internalType": "enum helper.bgrp",
              "name": "bloodgroup",
              "type": "uint8"
            },
            {
              "internalType": "enum helper.ctry",
              "name": "country",
              "type": "uint8"
            },
            {
              "internalType": "enum helper.state",
              "name": "State",
              "type": "uint8"
            },
            {
              "internalType": "uint256",
              "name": "contact",
              "type": "uint256"
            },
            {
              "internalType": "bool",
              "name": "isavailable",
              "type": "bool"
            },
            {
              "internalType": "bool",
              "name": "isverified",
              "type": "bool"
            }
          ],
          "internalType": "struct BloodLink.User[]",
          "name": "",
          "type": "tuple[]"
        }
      ],
      "stateMutability": "view",
      "type": "function",
      "constant": true
    },
    {
      "inputs": [
        {
          "internalType": "address",
          "name": "_donor",
          "type": "address"
        },
        {
          "internalType": "string",
          "name": "_patientName",
          "type": "string"
        },
        {
          "internalType": "string",
          "name": "_patientContact",
          "type": "string"
        },
        {
          "internalType": "string",
          "name": "_bloodGroup",
          "type": "string"
        }
      ],
      "name": "requestBlood",
      "outputs": [],
      "stateMutability": "nonpayable",
      "type": "function"
    },
    {
      "inputs": [
        {
          "internalType": "address",
          "name": "_patient",
          "type": "address"
        }
      ],
      "name": "getRequestStatus",
      "outputs": [
        {
          "components": [
            {
              "internalType": "uint256",
              "name": "id",
              "type": "uint256"
            },
            {
              "internalType": "address",
              "name": "patient",
              "type": "address"
            },
            {
              "internalType": "address",
              "name": "donor",
              "type": "address"
            },
            {
              "internalType": "string",
              "name": "patientName",
              "type": "string"
            },
            {
              "internalType": "string",
              "name": "patientContact",
              "type": "string"
            },
            {
              "internalType": "enum helper.bgrp",
              "name": "requestedBloodGroup",
              "type": "uint8"
            },
            {
              "internalType": "enum helper.requestStatus",
              "name": "Status",
              "type": "uint8"
            }
          ],
          "internalType": "struct BloodLink.BloodRequest[]",
          "name": "",
          "type": "tuple[]"
        }
      ],
      "stateMutability": "view",
      "type": "function",
      "constant": true
    },
    {
      "inputs": [
        {
          "internalType": "address",
          "name": "_address",
          "type": "address"
        },
        {
          "internalType": "string",
          "name": "_place",
          "type": "string"
        },
        {
          "internalType": "string",
          "name": "_date",
          "type": "string"
        },
        {
          "internalType": "string",
          "name": "_status",
          "type": "string"
        }
      ],
      "name": "donateBlood",
      "outputs": [],
      "stateMutability": "nonpayable",
      "type": "function"
    },
    {
      "inputs": [
        {
          "internalType": "uint256",
          "name": "requestId",
          "type": "uint256"
        },
        {
          "internalType": "bool",
          "name": "approve",
          "type": "bool"
        }
      ],
      "name": "approveRequest",
      "outputs": [],
      "stateMutability": "nonpayable",
      "type": "function"
    },
    {
      "inputs": [],
      "name": "viewDonors",
      "outputs": [
        {
          "components": [
            {
              "internalType": "uint8",
              "name": "id",
              "type": "uint8"
            },
            {
              "internalType": "string",
              "name": "name",
              "type": "string"
            },
            {
              "internalType": "string",
              "name": "gender",
              "type": "string"
            },
            {
              "internalType": "enum helper.bgrp",
              "name": "bloodgroup",
              "type": "uint8"
            },
            {
              "internalType": "enum helper.ctry",
              "name": "country",
              "type": "uint8"
            },
            {
              "internalType": "enum helper.state",
              "name": "State",
              "type": "uint8"
            },
            {
              "internalType": "uint256",
              "name": "contact",
              "type": "uint256"
            },
            {
              "internalType": "bool",
              "name": "isavailable",
              "type": "bool"
            },
            {
              "internalType": "bool",
              "name": "isverified",
              "type": "bool"
            }
          ],
          "internalType": "struct BloodLink.User[]",
          "name": "",
          "type": "tuple[]"
        }
      ],
      "stateMutability": "view",
      "type": "function",
      "constant": true
    },
    {
      "inputs": [],
      "name": "viewPatients",
      "outputs": [
        {
          "components": [
            {
              "internalType": "uint256",
              "name": "id",
              "type": "uint256"
            },
            {
              "internalType": "address",
              "name": "patient",
              "type": "address"
            },
            {
              "internalType": "address",
              "name": "donor",
              "type": "address"
            },
            {
              "internalType": "string",
              "name": "patientName",
              "type": "string"
            },
            {
              "internalType": "string",
              "name": "patientContact",
              "type": "string"
            },
            {
              "internalType": "enum helper.bgrp",
              "name": "requestedBloodGroup",
              "type": "uint8"
            },
            {
              "internalType": "enum helper.requestStatus",
              "name": "Status",
              "type": "uint8"
            }
          ],
          "internalType": "struct BloodLink.BloodRequest[]",
          "name": "",
          "type": "tuple[]"
        }
      ],
      "stateMutability": "view",
      "type": "function",
      "constant": true
    },
    {
      "inputs": [
        {
          "internalType": "address",
          "name": "_address",
          "type": "address"
        },
        {
          "internalType": "bool",
          "name": "_whichone",
          "type": "bool"
        }
      ],
      "name": "addBorH",
      "outputs": [],
      "stateMutability": "nonpayable",
      "type": "function"
    },
    {
      "inputs": [
        {
          "internalType": "address",
          "name": "donor",
          "type": "address"
        }
      ],
      "name": "trackBlood",
      "outputs": [
        {
          "internalType": "enum helper.status",
          "name": "",
          "type": "uint8"
        }
      ],
      "stateMutability": "view",
      "type": "function",
      "constant": true
    },
    {
      "inputs": [
        {
          "internalType": "address",
          "name": "donor",
          "type": "address"
        },
        {
          "internalType": "string",
          "name": "_status",
          "type": "string"
        }
      ],
      "name": "setBloodLocation",
      "outputs": [],
      "stateMutability": "nonpayable",
      "type": "function"
    },
    {
      "inputs": [
        {
          "internalType": "address",
          "name": "userAddress",
          "type": "address"
        },
        {
          "internalType": "uint8",
          "name": "_no",
          "type": "uint8"
        }
      ],
      "name": "setStatus",
      "outputs": [],
      "stateMutability": "nonpayable",
      "type": "function"
    }
  ],
  "bytecode": "0x60806040526000600160006101000a81548160ff021916908360ff16021790555034801561002c57600080fd5b50615dfa806200003d6000396000f3fe608060405234801561001057600080fd5b50600436106101da5760003560e01c80637462df1111610104578063a4a45abd116100a2578063cb80c3a811610071578063cb80c3a8146105e9578063cea2312114610605578063f851a44014610635578063f98fe62814610653576101da565b8063a4a45abd1461052f578063b19743c514610565578063ba2d3f3814610595578063ca0cdea8146105b1576101da565b806381dc6fd2116100de57806381dc6fd2146104935780638a4b006b146104c35780638b739999146104e157806395086ed1146104fd576101da565b80637462df111461042b578063762dcf0b14610447578063767e0b9c14610477576101da565b8063278e07ce1161017c57806356eaf7c41161014b57806356eaf7c41461037f5780636406fab1146103af578063651173dc146103df57806368bd9c8c1461040f576101da565b8063278e07ce146102e55780632b2aee5d146103015780632d24d07e14610331578063517aea2a1461034f576101da565b8063159e8925116101b8578063159e89251461024b5780631c13ab611461027b5780631ca9adaf1461029957806322b05ed2146102b5576101da565b806307973ccf146101df57806308e9bb0e146101fd5780631334e3411461022d575b600080fd5b6101e7610683565b6040516101f491906141e6565b60405180910390f35b6102176004803603810190610212919061424b565b610696565b60405161022491906142b9565b60405180910390f35b61023561074d565b60405161024291906142e3565b60405180910390f35b61026560048036038101906102609190614444565b610753565b6040516102729190614504565b60405180910390f35b6102836107f0565b60405161029091906147b1565b60405180910390f35b6102b360048036038101906102ae91906147ff565b610b10565b005b6102cf60048036038101906102ca9190614444565b610e67565b6040516102dc9190614902565b60405180910390f35b6102ff60048036038101906102fa9190614949565b610f97565b005b61031b6004803603810190610316919061424b565b611280565b60405161032891906142b9565b60405180910390f35b6103396112bf565b60405161034691906142e3565b60405180910390f35b61036960048036038101906103649190614989565b6112c5565b60405161037691906147b1565b60405180910390f35b610399600480360381019061039491906149ee565b611896565b6040516103a69190614cc0565b60405180910390f35b6103c960048036038101906103c49190614444565b61207c565b6040516103d69190614cf1565b60405180910390f35b6103f960048036038101906103f49190614989565b612119565b6040516104069190614e34565b60405180910390f35b610429600480360381019061042491906147ff565b61241a565b005b61044560048036038101906104409190614e56565b612660565b005b610461600480360381019061045c9190614444565b612a68565b60405161046e9190614f93565b60405180910390f35b610491600480360381019061048c9190614fae565b612c5c565b005b6104ad60048036038101906104a8919061424b565b612df2565b6040516104ba91906142b9565b60405180910390f35b6104cb612e31565b6040516104d89190614cc0565b60405180910390f35b6104fb60048036038101906104f69190614fee565b613198565b005b6105176004803603810190610512919061504a565b613301565b604051610526939291906150d4565b60405180910390f35b6105496004803603810190610544919061424b565b613465565b60405161055c9796959493929190615128565b60405180910390f35b61057f600480360381019061057a9190614989565b613611565b60405161058c9190614902565b60405180910390f35b6105af60048036038101906105aa9190614fae565b61375c565b005b6105cb60048036038101906105c69190614989565b61393c565b6040516105e0999897969594939291906151b4565b60405180910390f35b61060360048036038101906105fe919061524f565b613ae8565b005b61061f600480360381019061061a919061424b565b613bbd565b60405161062c91906142b9565b60405180910390f35b61063d613bfc565b60405161064a91906142b9565b60405180910390f35b61066d60048036038101906106689190614989565b613c22565b60405161067a91906147b1565b60405180910390f35b600160009054906101000a900460ff1681565b600080821180156106ac57506000805490508211155b80156106bc575060008080549050115b6106fb576040517f08c379a00000000000000000000000000000000000000000000000000000000081526004016106f2906152db565b60405180910390fd5b600060018361070a919061532a565b8154811061071b5761071a61535e565b5b9060005260206000200160009054906101000a900473ffffffffffffffffffffffffffffffffffffffff169050919050565b60075481565b6000808260405160200161076791906153c9565b6040516020818303038152906040528051906020012090507fafb612801c0c9f3c3a00f818ee652e98411618e2f8d2ae05988522d78f08fdeb81036107b05760009150506107eb565b6040517f08c379a00000000000000000000000000000000000000000000000000000000081526004016107e29061542c565b60405180910390fd5b919050565b6060600060075467ffffffffffffffff8111156108105761080f614319565b5b60405190808252806020026020018201604052801561084957816020015b6108366140b6565b81526020019060019003908161082e5790505b5090506000805b600754811015610b0757600660008281526020019081526020016000206040518060e0016040529081600082015481526020016001820160009054906101000a900473ffffffffffffffffffffffffffffffffffffffff1673ffffffffffffffffffffffffffffffffffffffff1673ffffffffffffffffffffffffffffffffffffffff1681526020016002820160009054906101000a900473ffffffffffffffffffffffffffffffffffffffff1673ffffffffffffffffffffffffffffffffffffffff1673ffffffffffffffffffffffffffffffffffffffff16815260200160038201805461093e9061547b565b80601f016020809104026020016040519081016040528092919081815260200182805461096a9061547b565b80156109b75780601f1061098c576101008083540402835291602001916109b7565b820191906000526020600020905b81548152906001019060200180831161099a57829003601f168201915b505050505081526020016004820180546109d09061547b565b80601f01602080910402602001604051908101604052809291908181526020018280546109fc9061547b565b8015610a495780601f10610a1e57610100808354040283529160200191610a49565b820191906000526020600020905b815481529060010190602001808311610a2c57829003601f168201915b505050505081526020016005820160009054906101000a900460ff166007811115610a7757610a7661448d565b5b6007811115610a8957610a8861448d565b5b81526020016005820160019054906101000a900460ff166004811115610ab257610ab161448d565b5b6004811115610ac457610ac361448d565b5b81525050838381518110610adb57610ada61535e565b5b60200260200101819052508180610af1906154ac565b9250508080610aff906154ac565b915050610850565b50819250505090565b600073ffffffffffffffffffffffffffffffffffffffff168473ffffffffffffffffffffffffffffffffffffffff1603610b7f576040517f08c379a0000000000000000000000000000000000000000000000000000000008152600401610b7690615540565b60405180910390fd5b6000600560008673ffffffffffffffffffffffffffffffffffffffff1673ffffffffffffffffffffffffffffffffffffffff16815260200190815260200160002060000160009054906101000a900460ff1660ff1603610c14576040517f08c379a0000000000000000000000000000000000000000000000000000000008152600401610c0b906155ac565b60405180910390fd5b6000610c1f82612a68565b90506040518060e0016040528060075481526020013373ffffffffffffffffffffffffffffffffffffffff1681526020018673ffffffffffffffffffffffffffffffffffffffff168152602001858152602001848152602001826007811115610c8b57610c8a61448d565b5b815260200160006004811115610ca457610ca361448d565b5b8152506006600060075481526020019081526020016000206000820151816000015560208201518160010160006101000a81548173ffffffffffffffffffffffffffffffffffffffff021916908373ffffffffffffffffffffffffffffffffffffffff16021790555060408201518160020160006101000a81548173ffffffffffffffffffffffffffffffffffffffff021916908373ffffffffffffffffffffffffffffffffffffffff1602179055506060820151816003019081610d699190615778565b506080820151816004019081610d7f9190615778565b5060a08201518160050160006101000a81548160ff02191690836007811115610dab57610daa61448d565b5b021790555060c08201518160050160016101000a81548160ff02191690836004811115610ddb57610dda61448d565b5b02179055509050508473ffffffffffffffffffffffffffffffffffffffff163373ffffffffffffffffffffffffffffffffffffffff167f5a821b0739ec0d522b105fcf62c146deb87d94952f2536afd89bed56e96ff2e083604051610e409190614f93565b60405180910390a360076000815480929190610e5b906154ac565b91905055505050505050565b60008082604051602001610e7b91906153c9565b6040516020818303038152906040528051906020012090507f2304e88f144ae9318c71b0fb9e0f44bd9e0c6c58fb1b5315a35fd8b4b2a444ab8103610ec4576000915050610f92565b7f60a73bfb121a98fb6b52dfb29eb0defd76b60065b8cf07902baf28c167d24daf8103610ef5576001915050610f92565b7f414f72a4d550cad29f17d9d99a4af64b3776ec5538cd440cef0f03fef2e9e0108103610f26576002915050610f92565b7fd1e8aeb79500496ef3dc2e57ba746a8315d048b7a664a2bf948db4fa919604838103610f57576003915050610f92565b6040517f08c379a0000000000000000000000000000000000000000000000000000000008152600401610f8990615896565b60405180910390fd5b919050565b60008160ff161480610fac575060018160ff16145b15611111576000600560008473ffffffffffffffffffffffffffffffffffffffff1673ffffffffffffffffffffffffffffffffffffffff16815260200190815260200160002060000160009054906101000a900460ff1660ff1603611046576040517f08c379a000000000000000000000000000000000000000000000000000000000815260040161103d90615902565b60405180910390fd5b60008160ff16146110b0576001600560008473ffffffffffffffffffffffffffffffffffffffff1673ffffffffffffffffffffffffffffffffffffffff16815260200190815260200160002060050160016101000a81548160ff021916908315150217905561110b565b6001600560008473ffffffffffffffffffffffffffffffffffffffff1673ffffffffffffffffffffffffffffffffffffffff16815260200190815260200160002060050160006101000a81548160ff02191690831515021790555b5061127c565b60028160ff160361127b576000600460008473ffffffffffffffffffffffffffffffffffffffff1673ffffffffffffffffffffffffffffffffffffffff16815260200190815260200160002080549050116111a1576040517f08c379a000000000000000000000000000000000000000000000000000000000815260040161119890615994565b60405180910390fd5b6003600460008473ffffffffffffffffffffffffffffffffffffffff1673ffffffffffffffffffffffffffffffffffffffff1681526020019081526020016000206001600460008673ffffffffffffffffffffffffffffffffffffffff1673ffffffffffffffffffffffffffffffffffffffff16815260200190815260200160002080549050611231919061532a565b815481106112425761124161535e565b5b906000526020600020906003020160020160006101000a81548160ff021916908360038111156112755761127461448d565b5b02179055505b5b5050565b6000818154811061129057600080fd5b906000526020600020016000915054906101000a900473ffffffffffffffffffffffffffffffffffffffff1681565b60025481565b6060600073ffffffffffffffffffffffffffffffffffffffff168273ffffffffffffffffffffffffffffffffffffffff1603611336576040517f08c379a000000000000000000000000000000000000000000000000000000000815260040161132d90615540565b60405180910390fd5b6000600560008473ffffffffffffffffffffffffffffffffffffffff1673ffffffffffffffffffffffffffffffffffffffff16815260200190815260200160002060000160009054906101000a900460ff1660ff16036113cb576040517f08c379a00000000000000000000000000000000000000000000000000000000081526004016113c2906155ac565b60405180910390fd5b6000805b6007548110156114b8578373ffffffffffffffffffffffffffffffffffffffff166006600083815260200190815260200160002060020160009054906101000a900473ffffffffffffffffffffffffffffffffffffffff1673ffffffffffffffffffffffffffffffffffffffff161480156114915750600160048111156114595761145861448d565b5b6006600083815260200190815260200160002060050160019054906101000a900460ff16600481111561148f5761148e61448d565b5b145b156114a55781806114a1906154ac565b9250505b80806114b0906154ac565b9150506113cf565b5060008167ffffffffffffffff8111156114d5576114d4614319565b5b60405190808252806020026020018201604052801561150e57816020015b6114fb6140b6565b8152602001906001900390816114f35790505b5090506000805b60075481101561188a578573ffffffffffffffffffffffffffffffffffffffff166006600083815260200190815260200160002060020160009054906101000a900473ffffffffffffffffffffffffffffffffffffffff1673ffffffffffffffffffffffffffffffffffffffff161480156115d757506001600481111561159f5761159e61448d565b5b6006600083815260200190815260200160002060050160019054906101000a900460ff1660048111156115d5576115d461448d565b5b145b1561187757600660008281526020019081526020016000206040518060e0016040529081600082015481526020016001820160009054906101000a900473ffffffffffffffffffffffffffffffffffffffff1673ffffffffffffffffffffffffffffffffffffffff1673ffffffffffffffffffffffffffffffffffffffff1681526020016002820160009054906101000a900473ffffffffffffffffffffffffffffffffffffffff1673ffffffffffffffffffffffffffffffffffffffff1673ffffffffffffffffffffffffffffffffffffffff1681526020016003820180546116c09061547b565b80601f01602080910402602001604051908101604052809291908181526020018280546116ec9061547b565b80156117395780601f1061170e57610100808354040283529160200191611739565b820191906000526020600020905b81548152906001019060200180831161171c57829003601f168201915b505050505081526020016004820180546117529061547b565b80601f016020809104026020016040519081016040528092919081815260200182805461177e9061547b565b80156117cb5780601f106117a0576101008083540402835291602001916117cb565b820191906000526020600020905b8154815290600101906020018083116117ae57829003601f168201915b505050505081526020016005820160009054906101000a900460ff1660078111156117f9576117f861448d565b5b600781111561180b5761180a61448d565b5b81526020016005820160019054906101000a900460ff1660048111156118345761183361448d565b5b60048111156118465761184561448d565b5b8152505083838151811061185d5761185c61535e565b5b60200260200101819052508180611873906154ac565b9250505b8080611882906154ac565b915050611515565b50819350505050919050565b606060006118a387612a68565b905060006118b087610753565b905060006118bd8761207c565b90506000805b600160009054906101000a900460ff1660ff16811015611c585760006118f46001836118ef91906159b4565b610696565b90506000600560008373ffffffffffffffffffffffffffffffffffffffff1673ffffffffffffffffffffffffffffffffffffffff168152602001908152602001600020604051806101200160405290816000820160009054906101000a900460ff1660ff1660ff1681526020016001820180546119709061547b565b80601f016020809104026020016040519081016040528092919081815260200182805461199c9061547b565b80156119e95780601f106119be576101008083540402835291602001916119e9565b820191906000526020600020905b8154815290600101906020018083116119cc57829003601f168201915b50505050508152602001600282018054611a029061547b565b80601f0160208091040260200160405190810160405280929190818152602001828054611a2e9061547b565b8015611a7b5780601f10611a5057610100808354040283529160200191611a7b565b820191906000526020600020905b815481529060010190602001808311611a5e57829003601f168201915b505050505081526020016003820160009054906101000a900460ff166007811115611aa957611aa861448d565b5b6007811115611abb57611aba61448d565b5b81526020016003820160019054906101000a900460ff166000811115611ae457611ae361448d565b5b6000811115611af657611af561448d565b5b81526020016003820160029054906101000a900460ff166000811115611b1f57611b1e61448d565b5b6000811115611b3157611b3061448d565b5b8152602001600482015481526020016005820160009054906101000a900460ff161515151581526020016005820160019054906101000a900460ff1615151515815250509050866007811115611b8a57611b8961448d565b5b81606001516007811115611ba157611ba061448d565b5b148015611bd55750856000811115611bbc57611bbb61448d565b5b81608001516000811115611bd357611bd261448d565b5b145b8015611c085750846000811115611bef57611bee61448d565b5b8160a001516000811115611c0657611c0561448d565b5b145b8015611c1b57508915158160e001511515145b8015611c2f57508815158161010001511515145b15611c43578380611c3f906154ac565b9450505b50508080611c50906154ac565b9150506118c3565b5060008167ffffffffffffffff811115611c7557611c74614319565b5b604051908082528060200260200182016040528015611cae57816020015b611c9b614143565b815260200190600190039081611c935790505b5090506000805b600160009054906101000a900460ff1660ff16811015612069576000611ce6600183611ce191906159b4565b610696565b90506000600560008373ffffffffffffffffffffffffffffffffffffffff1673ffffffffffffffffffffffffffffffffffffffff168152602001908152602001600020604051806101200160405290816000820160009054906101000a900460ff1660ff1660ff168152602001600182018054611d629061547b565b80601f0160208091040260200160405190810160405280929190818152602001828054611d8e9061547b565b8015611ddb5780601f10611db057610100808354040283529160200191611ddb565b820191906000526020600020905b815481529060010190602001808311611dbe57829003601f168201915b50505050508152602001600282018054611df49061547b565b80601f0160208091040260200160405190810160405280929190818152602001828054611e209061547b565b8015611e6d5780601f10611e4257610100808354040283529160200191611e6d565b820191906000526020600020905b815481529060010190602001808311611e5057829003601f168201915b505050505081526020016003820160009054906101000a900460ff166007811115611e9b57611e9a61448d565b5b6007811115611ead57611eac61448d565b5b81526020016003820160019054906101000a900460ff166000811115611ed657611ed561448d565b5b6000811115611ee857611ee761448d565b5b81526020016003820160029054906101000a900460ff166000811115611f1157611f1061448d565b5b6000811115611f2357611f2261448d565b5b8152602001600482015481526020016005820160009054906101000a900460ff161515151581526020016005820160019054906101000a900460ff1615151515815250509050886007811115611f7c57611f7b61448d565b5b81606001516007811115611f9357611f9261448d565b5b148015611fc75750876000811115611fae57611fad61448d565b5b81608001516000811115611fc557611fc461448d565b5b145b8015611ffa5750866000811115611fe157611fe061448d565b5b8160a001516000811115611ff857611ff761448d565b5b145b801561200d57508b15158160e001511515145b801561202157508a15158161010001511515145b15612054578085858151811061203a5761203961535e565b5b60200260200101819052508380612050906154ac565b9450505b50508080612061906154ac565b915050611cb5565b5081965050505050505095945050505050565b6000808260405160200161209091906153c9565b6040516020818303038152906040528051906020012090507fb1c01d00e7a2e21e637e7b0cc86ba6340f897e4d865d93b899e239a98ec935ed81036120d9576000915050612114565b6040517f08c379a000000000000000000000000000000000000000000000000000000000815260040161210b90615a34565b60405180910390fd5b919050565b6060600073ffffffffffffffffffffffffffffffffffffffff168273ffffffffffffffffffffffffffffffffffffffff160361218a576040517f08c379a000000000000000000000000000000000000000000000000000000000815260040161218190615aa0565b60405180910390fd5b6000600560008473ffffffffffffffffffffffffffffffffffffffff1673ffffffffffffffffffffffffffffffffffffffff16815260200190815260200160002060000160009054906101000a900460ff1660ff160361221f576040517f08c379a0000000000000000000000000000000000000000000000000000000008152600401612216906155ac565b60405180910390fd5b600460008373ffffffffffffffffffffffffffffffffffffffff1673ffffffffffffffffffffffffffffffffffffffff168152602001908152602001600020805480602002602001604051908101604052809291908181526020016000905b8282101561240f57838290600052602060002090600302016040518060600160405290816000820180546122b19061547b565b80601f01602080910402602001604051908101604052809291908181526020018280546122dd9061547b565b801561232a5780601f106122ff5761010080835404028352916020019161232a565b820191906000526020600020905b81548152906001019060200180831161230d57829003601f168201915b505050505081526020016001820180546123439061547b565b80601f016020809104026020016040519081016040528092919081815260200182805461236f9061547b565b80156123bc5780601f10612391576101008083540402835291602001916123bc565b820191906000526020600020905b81548152906001019060200180831161239f57829003601f168201915b505050505081526020016002820160009054906101000a900460ff1660038111156123ea576123e961448d565b5b60038111156123fc576123fb61448d565b5b815250508152602001906001019061227e565b505050509050919050565b600073ffffffffffffffffffffffffffffffffffffffff168473ffffffffffffffffffffffffffffffffffffffff1603612489576040517f08c379a000000000000000000000000000000000000000000000000000000000815260040161248090615aa0565b60405180910390fd5b6000600560008673ffffffffffffffffffffffffffffffffffffffff1673ffffffffffffffffffffffffffffffffffffffff16815260200190815260200160002060000160009054906101000a900460ff1660ff160361251e576040517f08c379a000000000000000000000000000000000000000000000000000000000815260040161251590615b0c565b60405180910390fd5b600061252982610e67565b9050600460008673ffffffffffffffffffffffffffffffffffffffff1673ffffffffffffffffffffffffffffffffffffffff16815260200190815260200160002060405180606001604052808681526020018581526020018360038111156125945761259361448d565b5b815250908060018154018082558091505060019003906000526020600020906003020160009091909190915060008201518160000190816125d59190615778565b5060208201518160010190816125eb9190615778565b5060408201518160020160006101000a81548160ff021916908360038111156126175761261661448d565b5b021790555050507ff7c46a5c14f2db0b206729a491ff415c538ab0def2d6b0ddd7171178ad35d3c4848483604051612651939291906150d4565b60405180910390a15050505050565b600061266b85612a68565b9050600061267884610753565b905060006126858461207c565b9050600073ffffffffffffffffffffffffffffffffffffffff168a73ffffffffffffffffffffffffffffffffffffffff16036126f6576040517f08c379a00000000000000000000000000000000000000000000000000000000081526004016126ed90615aa0565b60405180910390fd5b6000600560008c73ffffffffffffffffffffffffffffffffffffffff1673ffffffffffffffffffffffffffffffffffffffff16815260200190815260200160002060000160009054906101000a900460ff1660ff161461278b576040517f08c379a000000000000000000000000000000000000000000000000000000000815260040161278290615b78565b60405180910390fd5b6040518061012001604052806001600081819054906101000a900460ff166127b290615b98565b91906101000a81548160ff021916908360ff160217905560ff1681526020018a81526020018981526020018460078111156127f0576127ef61448d565b5b81526020018360008111156128085761280761448d565b5b81526020018260008111156128205761281f61448d565b5b815260200187815260200160001515815260200160001515815250600560008c73ffffffffffffffffffffffffffffffffffffffff1673ffffffffffffffffffffffffffffffffffffffff16815260200190815260200160002060008201518160000160006101000a81548160ff021916908360ff16021790555060208201518160010190816128b09190615778565b5060408201518160020190816128c69190615778565b5060608201518160030160006101000a81548160ff021916908360078111156128f2576128f161448d565b5b021790555060808201518160030160016101000a81548160ff021916908360008111156129225761292161448d565b5b021790555060a08201518160030160026101000a81548160ff021916908360008111156129525761295161448d565b5b021790555060c0820151816004015560e08201518160050160006101000a81548160ff0219169083151502179055506101008201518160050160016101000a81548160ff02191690831515021790555090505060008a9080600181540180825580915050600190039060005260206000200160009091909190916101000a81548173ffffffffffffffffffffffffffffffffffffffff021916908373ffffffffffffffffffffffffffffffffffffffff1602179055508973ffffffffffffffffffffffffffffffffffffffff167fd9099e839d10e1bedccf96e6dccc56623b452b0e711da73499db73082d6703098a8a868a604051612a549493929190615bc1565b60405180910390a250505050505050505050565b60008082604051602001612a7c91906153c9565b6040516020818303038152906040528051906020012090507f649e021f9eaf39b06c5621c6be730ef1a7c07b4a330ebd65cb4cf3c1acbdc25b8103612ac5576000915050612c57565b7fc17e967cca5b13789a8b0a338b040ccb1a791c8d505c71d5136e55b08bb770328103612af6576001915050612c57565b7fa2db8fe985b37421b16c9e9e3b1df46340e047acf8d67ec05a8644f9613a54078103612b27576002915050612c57565b7f44fa10585a597ceaf9d3847bf86363375af8a38f2de54fa74435af057ddf5c628103612b58576003915050612c57565b7ff18b6af3729594165f91de51beebb8b4a518cfb3a26999ca7bc197d830c175808103612b89576004915050612c57565b7f12cb627e789b83767f9dc7a45f7f04a31f6c72d94681a2de9e35cd946ddcd57f8103612bba576005915050612c57565b7f522f90e612a5e4f0522d3b84e9b640076f0418ff2e3589a08cf537d7a728b8718103612beb576006915050612c57565b7f7cae0611df8360dfbfbd84094536d4fec2353ad543470bae669e07190d5b5b848103612c1c576007915050612c57565b6040517f08c379a0000000000000000000000000000000000000000000000000000000008152600401612c4e90615c60565b60405180910390fd5b919050565b6007548210612ca0576040517f08c379a0000000000000000000000000000000000000000000000000000000008152600401612c9790615ccc565b60405180910390fd5b60006006600084815260200190815260200160002090508115612d575760018160050160016101000a81548160ff02191690836004811115612ce557612ce461448d565b5b02179055508060020160009054906101000a900473ffffffffffffffffffffffffffffffffffffffff1673ffffffffffffffffffffffffffffffffffffffff16837fcf361da4ecdf4696fcf80c41060f54e4806b8bc030a22a5569e4917a72a174b260405160405180910390a3612ded565b60028160050160016101000a81548160ff02191690836004811115612d7f57612d7e61448d565b5b02179055508060020160009054906101000a900473ffffffffffffffffffffffffffffffffffffffff1673ffffffffffffffffffffffffffffffffffffffff16837fcf361da4ecdf4696fcf80c41060f54e4806b8bc030a22a5569e4917a72a174b260405160405180910390a35b505050565b60098181548110612e0257600080fd5b906000526020600020016000915054906101000a900473ffffffffffffffffffffffffffffffffffffffff1681565b60606000808054905067ffffffffffffffff811115612e5357612e52614319565b5b604051908082528060200260200182016040528015612e8c57816020015b612e79614143565b815260200190600190039081612e715790505b50905060005b600080549050811015613190576000808281548110612eb457612eb361535e565b5b9060005260206000200160009054906101000a900473ffffffffffffffffffffffffffffffffffffffff169050600560008273ffffffffffffffffffffffffffffffffffffffff1673ffffffffffffffffffffffffffffffffffffffff168152602001908152602001600020604051806101200160405290816000820160009054906101000a900460ff1660ff1660ff168152602001600182018054612f599061547b565b80601f0160208091040260200160405190810160405280929190818152602001828054612f859061547b565b8015612fd25780601f10612fa757610100808354040283529160200191612fd2565b820191906000526020600020905b815481529060010190602001808311612fb557829003601f168201915b50505050508152602001600282018054612feb9061547b565b80601f01602080910402602001604051908101604052809291908181526020018280546130179061547b565b80156130645780601f1061303957610100808354040283529160200191613064565b820191906000526020600020905b81548152906001019060200180831161304757829003601f168201915b505050505081526020016003820160009054906101000a900460ff1660078111156130925761309161448d565b5b60078111156130a4576130a361448d565b5b81526020016003820160019054906101000a900460ff1660008111156130cd576130cc61448d565b5b60008111156130df576130de61448d565b5b81526020016003820160029054906101000a900460ff1660008111156131085761310761448d565b5b600081111561311a5761311961448d565b5b8152602001600482015481526020016005820160009054906101000a900460ff161515151581526020016005820160019054906101000a900460ff1615151515815250508383815181106131715761317061535e565b5b6020026020010181905250508080613188906154ac565b915050612e92565b508091505090565b6000600460008473ffffffffffffffffffffffffffffffffffffffff1673ffffffffffffffffffffffffffffffffffffffff168152602001908152602001600020805490501161321d576040517f08c379a000000000000000000000000000000000000000000000000000000000815260040161321490615994565b60405180910390fd5b61322681610e67565b600460008473ffffffffffffffffffffffffffffffffffffffff1673ffffffffffffffffffffffffffffffffffffffff1681526020019081526020016000206001600460008673ffffffffffffffffffffffffffffffffffffffff1673ffffffffffffffffffffffffffffffffffffffff168152602001908152602001600020805490506132b4919061532a565b815481106132c5576132c461535e565b5b906000526020600020906003020160020160006101000a81548160ff021916908360038111156132f8576132f761448d565b5b02179055505050565b6004602052816000526040600020818154811061331d57600080fd5b9060005260206000209060030201600091509150508060000180546133419061547b565b80601f016020809104026020016040519081016040528092919081815260200182805461336d9061547b565b80156133ba5780601f1061338f576101008083540402835291602001916133ba565b820191906000526020600020905b81548152906001019060200180831161339d57829003601f168201915b5050505050908060010180546133cf9061547b565b80601f01602080910402602001604051908101604052809291908181526020018280546133fb9061547b565b80156134485780601f1061341d57610100808354040283529160200191613448565b820191906000526020600020905b81548152906001019060200180831161342b57829003601f168201915b5050505050908060020160009054906101000a900460ff16905083565b60066020528060005260406000206000915090508060000154908060010160009054906101000a900473ffffffffffffffffffffffffffffffffffffffff16908060020160009054906101000a900473ffffffffffffffffffffffffffffffffffffffff16908060030180546134da9061547b565b80601f01602080910402602001604051908101604052809291908181526020018280546135069061547b565b80156135535780601f1061352857610100808354040283529160200191613553565b820191906000526020600020905b81548152906001019060200180831161353657829003601f168201915b5050505050908060040180546135689061547b565b80601f01602080910402602001604051908101604052809291908181526020018280546135949061547b565b80156135e15780601f106135b6576101008083540402835291602001916135e1565b820191906000526020600020905b8154815290600101906020018083116135c457829003601f168201915b5050505050908060050160009054906101000a900460ff16908060050160019054906101000a900460ff16905087565b600080600460008473ffffffffffffffffffffffffffffffffffffffff1673ffffffffffffffffffffffffffffffffffffffff1681526020019081526020016000208054905011613697576040517f08c379a000000000000000000000000000000000000000000000000000000000815260040161368e90615994565b60405180910390fd5b600460008373ffffffffffffffffffffffffffffffffffffffff1673ffffffffffffffffffffffffffffffffffffffff1681526020019081526020016000206001600460008573ffffffffffffffffffffffffffffffffffffffff1673ffffffffffffffffffffffffffffffffffffffff16815260200190815260200160002080549050613725919061532a565b815481106137365761373561535e565b5b906000526020600020906003020160020160009054906101000a900460ff169050919050565b60075482106137a0576040517f08c379a000000000000000000000000000000000000000000000000000000000815260040161379790615ccc565b60405180910390fd5b60006006600084815260200190815260200160002090503373ffffffffffffffffffffffffffffffffffffffff168160020160009054906101000a900473ffffffffffffffffffffffffffffffffffffffff1673ffffffffffffffffffffffffffffffffffffffff1614613849576040517f08c379a000000000000000000000000000000000000000000000000000000000815260040161384090615d38565b60405180910390fd5b81156138c55760038160050160016101000a81548160ff021916908360048111156138775761387661448d565b5b02179055503373ffffffffffffffffffffffffffffffffffffffff16837fcf361da4ecdf4696fcf80c41060f54e4806b8bc030a22a5569e4917a72a174b260405160405180910390a3613937565b60048160050160016101000a81548160ff021916908360048111156138ed576138ec61448d565b5b02179055503373ffffffffffffffffffffffffffffffffffffffff16837fcf361da4ecdf4696fcf80c41060f54e4806b8bc030a22a5569e4917a72a174b260405160405180910390a35b505050565b60056020528060005260406000206000915090508060000160009054906101000a900460ff16908060010180546139729061547b565b80601f016020809104026020016040519081016040528092919081815260200182805461399e9061547b565b80156139eb5780601f106139c0576101008083540402835291602001916139eb565b820191906000526020600020905b8154815290600101906020018083116139ce57829003601f168201915b505050505090806002018054613a009061547b565b80601f0160208091040260200160405190810160405280929190818152602001828054613a2c9061547b565b8015613a795780601f10613a4e57610100808354040283529160200191613a79565b820191906000526020600020905b815481529060010190602001808311613a5c57829003601f168201915b5050505050908060030160009054906101000a900460ff16908060030160019054906101000a900460ff16908060030160029054906101000a900460ff16908060040154908060050160009054906101000a900460ff16908060050160019054906101000a900460ff16905089565b80613b55576009829080600181540180825580915050600190039060005260206000200160009091909190916101000a81548173ffffffffffffffffffffffffffffffffffffffff021916908373ffffffffffffffffffffffffffffffffffffffff160217905550613bb9565b6008829080600181540180825580915050600190039060005260206000200160009091909190916101000a81548173ffffffffffffffffffffffffffffffffffffffff021916908373ffffffffffffffffffffffffffffffffffffffff1602179055505b5050565b60088181548110613bcd57600080fd5b906000526020600020016000915054906101000a900473ffffffffffffffffffffffffffffffffffffffff1681565b600360009054906101000a900473ffffffffffffffffffffffffffffffffffffffff1681565b6060600073ffffffffffffffffffffffffffffffffffffffff168273ffffffffffffffffffffffffffffffffffffffff1603613c93576040517f08c379a0000000000000000000000000000000000000000000000000000000008152600401613c8a90615da4565b60405180910390fd5b6000805b600754811015613d2c578373ffffffffffffffffffffffffffffffffffffffff166006600083815260200190815260200160002060010160009054906101000a900473ffffffffffffffffffffffffffffffffffffffff1673ffffffffffffffffffffffffffffffffffffffff1603613d19578180613d15906154ac565b9250505b8080613d24906154ac565b915050613c97565b5060008167ffffffffffffffff811115613d4957613d48614319565b5b604051908082528060200260200182016040528015613d8257816020015b613d6f6140b6565b815260200190600190039081613d675790505b5090506000805b6007548110156140aa578573ffffffffffffffffffffffffffffffffffffffff166006600083815260200190815260200160002060010160009054906101000a900473ffffffffffffffffffffffffffffffffffffffff1673ffffffffffffffffffffffffffffffffffffffff160361409757600660008281526020019081526020016000206040518060e0016040529081600082015481526020016001820160009054906101000a900473ffffffffffffffffffffffffffffffffffffffff1673ffffffffffffffffffffffffffffffffffffffff1673ffffffffffffffffffffffffffffffffffffffff1681526020016002820160009054906101000a900473ffffffffffffffffffffffffffffffffffffffff1673ffffffffffffffffffffffffffffffffffffffff1673ffffffffffffffffffffffffffffffffffffffff168152602001600382018054613ee09061547b565b80601f0160208091040260200160405190810160405280929190818152602001828054613f0c9061547b565b8015613f595780601f10613f2e57610100808354040283529160200191613f59565b820191906000526020600020905b815481529060010190602001808311613f3c57829003601f168201915b50505050508152602001600482018054613f729061547b565b80601f0160208091040260200160405190810160405280929190818152602001828054613f9e9061547b565b8015613feb5780601f10613fc057610100808354040283529160200191613feb565b820191906000526020600020905b815481529060010190602001808311613fce57829003601f168201915b505050505081526020016005820160009054906101000a900460ff1660078111156140195761401861448d565b5b600781111561402b5761402a61448d565b5b81526020016005820160019054906101000a900460ff1660048111156140545761405361448d565b5b60048111156140665761406561448d565b5b8152505083838151811061407d5761407c61535e565b5b60200260200101819052508180614093906154ac565b9250505b80806140a2906154ac565b915050613d89565b50819350505050919050565b6040518060e0016040528060008152602001600073ffffffffffffffffffffffffffffffffffffffff168152602001600073ffffffffffffffffffffffffffffffffffffffff1681526020016060815260200160608152602001600060078111156141245761412361448d565b5b81526020016000600481111561413d5761413c61448d565b5b81525090565b604051806101200160405280600060ff16815260200160608152602001606081526020016000600781111561417b5761417a61448d565b5b81526020016000808111156141935761419261448d565b5b81526020016000808111156141ab576141aa61448d565b5b8152602001600081526020016000151581526020016000151581525090565b600060ff82169050919050565b6141e0816141ca565b82525050565b60006020820190506141fb60008301846141d7565b92915050565b6000604051905090565b600080fd5b600080fd5b6000819050919050565b61422881614215565b811461423357600080fd5b50565b6000813590506142458161421f565b92915050565b6000602082840312156142615761426061420b565b5b600061426f84828501614236565b91505092915050565b600073ffffffffffffffffffffffffffffffffffffffff82169050919050565b60006142a382614278565b9050919050565b6142b381614298565b82525050565b60006020820190506142ce60008301846142aa565b92915050565b6142dd81614215565b82525050565b60006020820190506142f860008301846142d4565b92915050565b600080fd5b600080fd5b6000601f19601f8301169050919050565b7f4e487b7100000000000000000000000000000000000000000000000000000000600052604160045260246000fd5b61435182614308565b810181811067ffffffffffffffff821117156143705761436f614319565b5b80604052505050565b6000614383614201565b905061438f8282614348565b919050565b600067ffffffffffffffff8211156143af576143ae614319565b5b6143b882614308565b9050602081019050919050565b82818337600083830152505050565b60006143e76143e284614394565b614379565b90508281526020810184848401111561440357614402614303565b5b61440e8482856143c5565b509392505050565b600082601f83011261442b5761442a6142fe565b5b813561443b8482602086016143d4565b91505092915050565b60006020828403121561445a5761445961420b565b5b600082013567ffffffffffffffff81111561447857614477614210565b5b61448484828501614416565b91505092915050565b7f4e487b7100000000000000000000000000000000000000000000000000000000600052602160045260246000fd5b600181106144cd576144cc61448d565b5b50565b60008190506144de826144bc565b919050565b60006144ee826144d0565b9050919050565b6144fe816144e3565b82525050565b600060208201905061451960008301846144f5565b92915050565b600081519050919050565b600082825260208201905092915050565b6000819050602082019050919050565b61455481614215565b82525050565b61456381614298565b82525050565b600081519050919050565b600082825260208201905092915050565b60005b838110156145a3578082015181840152602081019050614588565b60008484015250505050565b60006145ba82614569565b6145c48185614574565b93506145d4818560208601614585565b6145dd81614308565b840191505092915050565b600881106145f9576145f861448d565b5b50565b600081905061460a826145e8565b919050565b600061461a826145fc565b9050919050565b61462a8161460f565b82525050565b600581106146415761464061448d565b5b50565b600081905061465282614630565b919050565b600061466282614644565b9050919050565b61467281614657565b82525050565b600060e083016000830151614690600086018261454b565b5060208301516146a3602086018261455a565b5060408301516146b6604086018261455a565b50606083015184820360608601526146ce82826145af565b915050608083015184820360808601526146e882826145af565b91505060a08301516146fd60a0860182614621565b5060c083015161471060c0860182614669565b508091505092915050565b60006147278383614678565b905092915050565b6000602082019050919050565b60006147478261451f565b614751818561452a565b9350836020820285016147638561453b565b8060005b8581101561479f5784840389528151614780858261471b565b945061478b8361472f565b925060208a01995050600181019050614767565b50829750879550505050505092915050565b600060208201905081810360008301526147cb818461473c565b905092915050565b6147dc81614298565b81146147e757600080fd5b50565b6000813590506147f9816147d3565b92915050565b600080600080608085870312156148195761481861420b565b5b6000614827878288016147ea565b945050602085013567ffffffffffffffff81111561484857614847614210565b5b61485487828801614416565b935050604085013567ffffffffffffffff81111561487557614874614210565b5b61488187828801614416565b925050606085013567ffffffffffffffff8111156148a2576148a1614210565b5b6148ae87828801614416565b91505092959194509250565b600481106148cb576148ca61448d565b5b50565b60008190506148dc826148ba565b919050565b60006148ec826148ce565b9050919050565b6148fc816148e1565b82525050565b600060208201905061491760008301846148f3565b92915050565b614926816141ca565b811461493157600080fd5b50565b6000813590506149438161491d565b92915050565b600080604083850312156149605761495f61420b565b5b600061496e858286016147ea565b925050602061497f85828601614934565b9150509250929050565b60006020828403121561499f5761499e61420b565b5b60006149ad848285016147ea565b91505092915050565b60008115159050919050565b6149cb816149b6565b81146149d657600080fd5b50565b6000813590506149e8816149c2565b92915050565b600080600080600060a08688031215614a0a57614a0961420b565b5b600086013567ffffffffffffffff811115614a2857614a27614210565b5b614a3488828901614416565b955050602086013567ffffffffffffffff811115614a5557614a54614210565b5b614a6188828901614416565b945050604086013567ffffffffffffffff811115614a8257614a81614210565b5b614a8e88828901614416565b9350506060614a9f888289016149d9565b9250506080614ab0888289016149d9565b9150509295509295909350565b600081519050919050565b600082825260208201905092915050565b6000819050602082019050919050565b614af2816141ca565b82525050565b614b01816144e3565b82525050565b60018110614b1857614b1761448d565b5b50565b6000819050614b2982614b07565b919050565b6000614b3982614b1b565b9050919050565b614b4981614b2e565b82525050565b614b58816149b6565b82525050565b600061012083016000830151614b776000860182614ae9565b5060208301518482036020860152614b8f82826145af565b91505060408301518482036040860152614ba982826145af565b9150506060830151614bbe6060860182614621565b506080830151614bd16080860182614af8565b5060a0830151614be460a0860182614b40565b5060c0830151614bf760c086018261454b565b5060e0830151614c0a60e0860182614b4f565b50610100830151614c1f610100860182614b4f565b508091505092915050565b6000614c368383614b5e565b905092915050565b6000602082019050919050565b6000614c5682614abd565b614c608185614ac8565b935083602082028501614c7285614ad9565b8060005b85811015614cae5784840389528151614c8f8582614c2a565b9450614c9a83614c3e565b925060208a01995050600181019050614c76565b50829750879550505050505092915050565b60006020820190508181036000830152614cda8184614c4b565b905092915050565b614ceb81614b2e565b82525050565b6000602082019050614d066000830184614ce2565b92915050565b600081519050919050565b600082825260208201905092915050565b6000819050602082019050919050565b614d41816148e1565b82525050565b60006060830160008301518482036000860152614d6482826145af565b91505060208301518482036020860152614d7e82826145af565b9150506040830151614d936040860182614d38565b508091505092915050565b6000614daa8383614d47565b905092915050565b6000602082019050919050565b6000614dca82614d0c565b614dd48185614d17565b935083602082028501614de685614d28565b8060005b85811015614e225784840389528151614e038582614d9e565b9450614e0e83614db2565b925060208a01995050600181019050614dea565b50829750879550505050505092915050565b60006020820190508181036000830152614e4e8184614dbf565b905092915050565b600080600080600080600060e0888a031215614e7557614e7461420b565b5b6000614e838a828b016147ea565b975050602088013567ffffffffffffffff811115614ea457614ea3614210565b5b614eb08a828b01614416565b965050604088013567ffffffffffffffff811115614ed157614ed0614210565b5b614edd8a828b01614416565b955050606088013567ffffffffffffffff811115614efe57614efd614210565b5b614f0a8a828b01614416565b9450506080614f1b8a828b01614236565b93505060a088013567ffffffffffffffff811115614f3c57614f3b614210565b5b614f488a828b01614416565b92505060c088013567ffffffffffffffff811115614f6957614f68614210565b5b614f758a828b01614416565b91505092959891949750929550565b614f8d8161460f565b82525050565b6000602082019050614fa86000830184614f84565b92915050565b60008060408385031215614fc557614fc461420b565b5b6000614fd385828601614236565b9250506020614fe4858286016149d9565b9150509250929050565b600080604083850312156150055761500461420b565b5b6000615013858286016147ea565b925050602083013567ffffffffffffffff81111561503457615033614210565b5b61504085828601614416565b9150509250929050565b600080604083850312156150615761506061420b565b5b600061506f858286016147ea565b925050602061508085828601614236565b9150509250929050565b600082825260208201905092915050565b60006150a682614569565b6150b0818561508a565b93506150c0818560208601614585565b6150c981614308565b840191505092915050565b600060608201905081810360008301526150ee818661509b565b90508181036020830152615102818561509b565b905061511160408301846148f3565b949350505050565b61512281614657565b82525050565b600060e08201905061513d600083018a6142d4565b61514a60208301896142aa565b61515760408301886142aa565b8181036060830152615169818761509b565b9050818103608083015261517d818661509b565b905061518c60a0830185614f84565b61519960c0830184615119565b98975050505050505050565b6151ae816149b6565b82525050565b6000610120820190506151ca600083018c6141d7565b81810360208301526151dc818b61509b565b905081810360408301526151f0818a61509b565b90506151ff6060830189614f84565b61520c60808301886144f5565b61521960a0830187614ce2565b61522660c08301866142d4565b61523360e08301856151a5565b6152416101008301846151a5565b9a9950505050505050505050565b600080604083850312156152665761526561420b565b5b6000615274858286016147ea565b9250506020615285858286016149d9565b9150509250929050565b7f496e76616c696420646f6e6f7220494400000000000000000000000000000000600082015250565b60006152c560108361508a565b91506152d08261528f565b602082019050919050565b600060208201905081810360008301526152f4816152b8565b9050919050565b7f4e487b7100000000000000000000000000000000000000000000000000000000600052601160045260246000fd5b600061533582614215565b915061534083614215565b9250828203905081811115615358576153576152fb565b5b92915050565b7f4e487b7100000000000000000000000000000000000000000000000000000000600052603260045260246000fd5b600081905092915050565b60006153a382614569565b6153ad818561538d565b93506153bd818560208601614585565b80840191505092915050565b60006153d58284615398565b915081905092915050565b7f496e76616c696420636f756e7472790000000000000000000000000000000000600082015250565b6000615416600f8361508a565b9150615421826153e0565b602082019050919050565b6000602082019050818103600083015261544581615409565b9050919050565b7f4e487b7100000000000000000000000000000000000000000000000000000000600052602260045260246000fd5b6000600282049050600182168061549357607f821691505b6020821081036154a6576154a561544c565b5b50919050565b60006154b782614215565b91507fffffffffffffffffffffffffffffffffffffffffffffffffffffffffffffffff82036154e9576154e86152fb565b5b600182019050919050565b7f496e76616c696420646f6e6f7220616464726573730000000000000000000000600082015250565b600061552a60158361508a565b9150615535826154f4565b602082019050919050565b600060208201905081810360008301526155598161551d565b9050919050565b7f446f6e6f72206e6f742072656769737465726564000000000000000000000000600082015250565b600061559660148361508a565b91506155a182615560565b602082019050919050565b600060208201905081810360008301526155c581615589565b9050919050565b60008190508160005260206000209050919050565b60006020601f8301049050919050565b600082821b905092915050565b60006008830261562e7fffffffffffffffffffffffffffffffffffffffffffffffffffffffffffffffff826155f1565b61563886836155f1565b95508019841693508086168417925050509392505050565b6000819050919050565b600061567561567061566b84614215565b615650565b614215565b9050919050565b6000819050919050565b61568f8361565a565b6156a361569b8261567c565b8484546155fe565b825550505050565b600090565b6156b86156ab565b6156c3818484615686565b505050565b5b818110156156e7576156dc6000826156b0565b6001810190506156c9565b5050565b601f82111561572c576156fd816155cc565b615706846155e1565b81016020851015615715578190505b615729615721856155e1565b8301826156c8565b50505b505050565b600082821c905092915050565b600061574f60001984600802615731565b1980831691505092915050565b6000615768838361573e565b9150826002028217905092915050565b61578182614569565b67ffffffffffffffff81111561579a57615799614319565b5b6157a4825461547b565b6157af8282856156eb565b600060209050601f8311600181146157e257600084156157d0578287015190505b6157da858261575c565b865550615842565b601f1984166157f0866155cc565b60005b82811015615818578489015182556001820191506020850194506020810190506157f3565b868310156158355784890151615831601f89168261573e565b8355505b6001600288020188555050505b505050505050565b7f496e76616c696420737461747573000000000000000000000000000000000000600082015250565b6000615880600e8361508a565b915061588b8261584a565b602082019050919050565b600060208201905081810360008301526158af81615873565b9050919050565b7f5573657220646f6573206e6f7420657869737400000000000000000000000000600082015250565b60006158ec60138361508a565b91506158f7826158b6565b602082019050919050565b6000602082019050818103600083015261591b816158df565b9050919050565b7f4e6f20646f6e6174696f6e20686973746f727920666f72207468697320646f6e60008201527f6f72000000000000000000000000000000000000000000000000000000000000602082015250565b600061597e60228361508a565b915061598982615922565b604082019050919050565b600060208201905081810360008301526159ad81615971565b9050919050565b60006159bf82614215565b91506159ca83614215565b92508282019050808211156159e2576159e16152fb565b5b92915050565b7f496e76616c696420737461746500000000000000000000000000000000000000600082015250565b6000615a1e600d8361508a565b9150615a29826159e8565b602082019050919050565b60006020820190508181036000830152615a4d81615a11565b9050919050565b7f496e76616c696420616464726573730000000000000000000000000000000000600082015250565b6000615a8a600f8361508a565b9150615a9582615a54565b602082019050919050565b60006020820190508181036000830152615ab981615a7d565b9050919050565b7f496e76616c696420646f6e6f7200000000000000000000000000000000000000600082015250565b6000615af6600d8361508a565b9150615b0182615ac0565b602082019050919050565b60006020820190508181036000830152615b2581615ae9565b9050919050565b7f4164647265737320697320616c72656164792072656769737465726564000000600082015250565b6000615b62601d8361508a565b9150615b6d82615b2c565b602082019050919050565b60006020820190508181036000830152615b9181615b55565b9050919050565b6000615ba3826141ca565b915060ff8203615bb657615bb56152fb565b5b600182019050919050565b60006080820190508181036000830152615bdb818761509b565b90508181036020830152615bef818661509b565b9050615bfe6040830185614f84565b615c0b60608301846142d4565b95945050505050565b7f496e76616c696420626c6f6f6467726f75700000000000000000000000000000600082015250565b6000615c4a60128361508a565b9150615c5582615c14565b602082019050919050565b60006020820190508181036000830152615c7981615c3d565b9050919050565b7f496e76616c696420726571756573742049440000000000000000000000000000600082015250565b6000615cb660128361508a565b9150615cc182615c80565b602082019050919050565b60006020820190508181036000830152615ce581615ca9565b9050919050565b7f4f6e6c7920666f722061737369676e656420646f6e6f72000000000000000000600082015250565b6000615d2260178361508a565b9150615d2d82615cec565b602082019050919050565b60006020820190508181036000830152615d5181615d15565b9050919050565b7f496e76616c69642070617469656e742061646472657373000000000000000000600082015250565b6000615d8e60178361508a565b9150615d9982615d58565b602082019050919050565b60006020820190508181036000830152615dbd81615d81565b905091905056fea2646970667358221220a95e29f21b8c3ecebff250b755fee299d2a5c733862de9476bcb2e1b1383a7ce64736f6c63430008130033",
  "immutableReferences": {},
  "source": "// SPDX-License-Identifier: MIT\r\n\r\npragma solidity ^0.8.19;\r\n\r\nimport './helper.sol';\r\n\r\ncontract BloodLink is helper{\r\n\r\n    uint8 public userCount=0;\r\n    uint256 public donor_end;\r\n    address public admin;\r\n    \r\n    struct User {\r\n        uint8 id;\r\n        string name;\r\n        string gender;\r\n        bgrp bloodgroup;\r\n        ctry country;\r\n        state State;\r\n        uint256 contact;\r\n        bool isavailable;\r\n        bool isverified;\r\n    }\r\n\r\n    struct Hist{\r\n        string place;\r\n        string date;\r\n        status Status;\r\n    }\r\n\r\n    struct BloodRequest {\r\n        uint256 id;\r\n        address patient;\r\n        address donor;\r\n        string patientName;\r\n        string patientContact;\r\n        bgrp requestedBloodGroup;\r\n        requestStatus Status;\r\n    }\r\n    \r\n    mapping(address=>Hist[]) public donations;\r\n    mapping(address => User) public donors;\r\n    mapping(uint256 => BloodRequest) public bloodRequests;\r\n    uint256 public bloodRequestCount;\r\n    address[] public suppliers;\r\n    address[] public hospitals;\r\n    \r\n    event regD(address indexed _address, string _name, string _gender, bgrp _bloodgroup, uint256 _contact);\r\n    event donateb(string _place,string date,status _status);\r\n    event bloodRequested(address indexed patient, address indexed donor, bgrp bloodGroup);\r\n    event RequestStatusChanged(uint256 indexed requestId, address indexed donor);\r\n\r\n    modifier onlyAdmin(){\r\n        require(admin==msg.sender,\"Not admin!\");\r\n        _;\r\n    }\r\n\r\n//------------------------------------------DONOR--------------------------------------------------------------------\r\n    //registerDonor => registers donor info\r\n    function registerDonor(address _address, string memory _name, string memory _gender,string memory _bloodgroup,\r\n     uint256 _contact, string memory _country, string memory _state) public {\r\n\r\n        bgrp bloodgroupEnum = getBloodGroupEnum(_bloodgroup);\r\n        ctry countryEnum = getCountryEnum(_country);\r\n        state stateEnum = getStateEnum(_state);\r\n        require(_address != address(0), \"Invalid address\");\r\n        require(donors[_address].id == 0, \"Address is already registered\");\r\n\r\n        donors[_address] = User({\r\n            id: ++userCount,\r\n            name: _name,\r\n            gender: _gender,\r\n            bloodgroup: bloodgroupEnum,\r\n            contact: _contact,\r\n            country: countryEnum,\r\n            State: stateEnum,\r\n            isavailable: false,\r\n            isverified: false\r\n        });\r\n        // donorIdToAddress[newId] = _address;\r\n        donorAddresses.push(_address);\r\n        emit regD(_address, _name, _gender, bloodgroupEnum, _contact);\r\n    }\r\n\r\n    //donateHistory => display history of donors donations with status\r\n    function donateHistory(address _address) public view returns(Hist[] memory){\r\n        require(_address != address(0), \"Invalid address\");\r\n        require(donors[_address].id != 0, \"Donor not registered\");\r\n        return donations[_address];\r\n    }\r\n\r\n    //getApprovedRequests => display the admin approved request of patient\r\n    function getApprovedRequests(address _donor) public view returns (BloodRequest[] memory) {\r\n        require(_donor != address(0), \"Invalid donor address\");\r\n        require(donors[_donor].id != 0, \"Donor not registered\");\r\n\r\n        uint256 count = 0;\r\n\r\n        // Count approved requests for the donor\r\n        for (uint256 i = 0; i < bloodRequestCount; i++) {\r\n            if (bloodRequests[i].donor == _donor && bloodRequests[i].Status == requestStatus.approved) {\r\n                count++;\r\n            }\r\n        }\r\n\r\n        BloodRequest[] memory approvedRequests = new BloodRequest[](count);\r\n        uint256 index = 0;\r\n\r\n        // Collect approved requests for the donor\r\n        for (uint256 i = 0; i < bloodRequestCount; i++) {\r\n            if (bloodRequests[i].donor == _donor && bloodRequests[i].Status == requestStatus.approved) {\r\n                approvedRequests[index] = bloodRequests[i];\r\n                index++;\r\n            }\r\n        }\r\n\r\n        return approvedRequests;\r\n    }\r\n\r\n    //respondToRequest => donor has to accept or decline the request\r\n    function respondToRequest(uint256 requestId, bool accept) public {\r\n        require(requestId < bloodRequestCount, \"Invalid request ID\");\r\n        BloodRequest storage request = bloodRequests[requestId];\r\n\r\n        require(request.donor == msg.sender, \"Only for assigned donor\");\r\n\r\n        if (accept) {\r\n            request.Status = requestStatus.accepted;\r\n            emit RequestStatusChanged(requestId, msg.sender);\r\n        } else {\r\n            request.Status = requestStatus.declined;\r\n            emit RequestStatusChanged(requestId, msg.sender);\r\n        }\r\n    }\r\n\r\n//------------------------------------------PATIENT------------------------------------------------------------------\r\n    //getEligibleDonors => displays a list of eligible donors acc to the place and bg\r\n    function getEligibleDonors(string memory _bloodgroup, string memory _country, string memory _state, \r\n    bool _isavailable, bool _isverified) public view returns (User[] memory) {\r\n        bgrp bloodgroupEnum = getBloodGroupEnum(_bloodgroup);\r\n        ctry countryEnum = getCountryEnum(_country);\r\n        state stateEnum = getStateEnum(_state);\r\n\r\n        uint256 count = 0;\r\n\r\n        // Count eligible donors\r\n        for (uint256 i = 0; i < userCount; i++) {\r\n            address donorAddress = getDonorAddressById(i + 1);\r\n            User memory donor = donors[donorAddress];\r\n\r\n            if (\r\n                donor.bloodgroup == bloodgroupEnum &&\r\n                donor.country == countryEnum &&\r\n                donor.State == stateEnum &&\r\n                donor.isavailable == _isavailable &&\r\n                donor.isverified == _isverified\r\n            ) {\r\n                count++;\r\n            }\r\n        }\r\n\r\n        User[] memory eligibleDonors = new User[](count);\r\n        uint256 index = 0;\r\n\r\n        // Collect eligible donors\r\n        for (uint256 i = 0; i < userCount; i++) {\r\n            address donorAddress = getDonorAddressById(i + 1);\r\n            User memory donor = donors[donorAddress];\r\n\r\n            if (\r\n                donor.bloodgroup == bloodgroupEnum &&\r\n                donor.country == countryEnum &&\r\n                donor.State == stateEnum &&\r\n                donor.isavailable == _isavailable &&\r\n                donor.isverified == _isverified\r\n            ) {\r\n                eligibleDonors[index] = donor;\r\n                index++;\r\n            }\r\n        }\r\n\r\n        return eligibleDonors;\r\n    }\r\n\r\n    //requestBlood => patient req blood\r\n    function requestBlood(address _donor, string memory _patientName, string memory _patientContact, string memory _bloodGroup) public {\r\n        require(_donor != address(0), \"Invalid donor address\");\r\n        require(donors[_donor].id != 0, \"Donor not registered\");\r\n        bgrp requestedBloodGroup = getBloodGroupEnum(_bloodGroup);\r\n\r\n        bloodRequests[bloodRequestCount] = BloodRequest({\r\n            id: bloodRequestCount,\r\n            patient: msg.sender,\r\n            donor: _donor,\r\n            patientName: _patientName,\r\n            patientContact: _patientContact,\r\n            requestedBloodGroup: requestedBloodGroup,\r\n            Status: requestStatus.requested\r\n        });\r\n\r\n        emit bloodRequested(msg.sender, _donor, requestedBloodGroup);\r\n        bloodRequestCount++;\r\n    }\r\n\r\n    //getRequestStatus => gives the status of the requested blood\r\n    function getRequestStatus(address _patient) public view returns (BloodRequest[] memory) {\r\n        require(_patient != address(0), \"Invalid patient address\");\r\n\r\n        uint256 count = 0;\r\n\r\n        // Count requests made by the patient\r\n        for (uint256 i = 0; i < bloodRequestCount; i++) {\r\n            if (bloodRequests[i].patient == _patient) {\r\n                count++;\r\n            }\r\n        }\r\n\r\n        BloodRequest[] memory patientRequests = new BloodRequest[](count);\r\n        uint256 index = 0;\r\n\r\n        // Collect requests made by the patient\r\n        for (uint256 i = 0; i < bloodRequestCount; i++) {\r\n            if (bloodRequests[i].patient == _patient) {\r\n                patientRequests[index] = bloodRequests[i];\r\n                index++;\r\n            }\r\n        }\r\n\r\n        return patientRequests;\r\n    }\r\n\r\n//------------------------------------------ADMIN--------------------------------------------------------------------\r\n\r\n    //donateBlood => registers that donor donated the blood\r\n    function donateBlood(address _address,string memory _place,string memory _date, string memory _status) public {\r\n        require(_address != address(0), \"Invalid address\");\r\n        require(donors[_address].id!=0,\"Invalid donor\");\r\n        // uint256 donationCount = donations[_address].length;\r\n        status _Status=getStatus(_status);\r\n        donations[_address].push(Hist({\r\n            place: _place,\r\n            date: _date,\r\n            Status: _Status\r\n        }));\r\n        emit donateb(_place,_date,_Status);\r\n    }\r\n\r\n    //approveRequest => approve patient req\r\n    function approveRequest(uint256 requestId, bool approve) public {\r\n        require(requestId < bloodRequestCount, \"Invalid request ID\");\r\n\r\n        BloodRequest storage request = bloodRequests[requestId];\r\n\r\n        if (approve) {\r\n            request.Status = requestStatus.approved;\r\n            emit RequestStatusChanged(requestId, request.donor);\r\n        } else {\r\n            request.Status = requestStatus.rejected;\r\n            emit RequestStatusChanged(requestId, request.donor);\r\n        }\r\n    }\r\n\r\n    //viewDonors => admin can view the donors with few details\r\n    function viewDonors() public view returns (User[] memory) {\r\n        User[] memory donorList = new User[](donorAddresses.length);\r\n\r\n        for (uint256 i = 0; i < donorAddresses.length; i++) {\r\n            address donorAddress = donorAddresses[i];\r\n            donorList[i] = donors[donorAddress];\r\n        }\r\n\r\n        return donorList;\r\n    }\r\n\r\n    //viewPatients => admin can view patients \r\n    function viewPatients() public view returns (BloodRequest[] memory) {\r\n        BloodRequest[] memory allRequests = new BloodRequest[](bloodRequestCount);\r\n        uint256 index = 0;\r\n\r\n        for (uint256 i = 0; i < bloodRequestCount; i++) {\r\n            allRequests[index] = bloodRequests[i];\r\n            index++;\r\n        }\r\n\r\n        return allRequests;\r\n    }\r\n\r\n    // adds both bloodbank and hospital where true for bloodbank and false for hospitals\r\n    function addBorH(address _address,bool _whichone) public {\r\n        // true for suppliers and false for hospitals\r\n        _whichone?suppliers.push(_address):hospitals.push(_address);\r\n    }\r\n\r\n    //trackBlood => track the bloodunit movement of the donor\r\n    function trackBlood(address donor) public view returns (status) {\r\n        // Ensure the donor has at least one donation history\r\n        require(donations[donor].length > 0, \"No donation history for this donor\");\r\n\r\n        // Return the Status of the most recent donation\r\n        return donations[donor][donations[donor].length - 1].Status;\r\n    }\r\n\r\n    //setBloodLocation => the rfid set the tracking value\r\n    function setBloodLocation(address donor, string memory _status) external {\r\n        require(donations[donor].length > 0, \"No donation history for this donor\");\r\n\r\n        // Get the latest donation entry and update its status\r\n        donations[donor][donations[donor].length - 1].Status = getStatus(_status);\r\n    \r\n        // emit donateb(donations[donor][donations[donor].length - 1].place, donations[donor][donations[donor].length - 1].date, donations[donor][donations[donor].length - 1].Status);\r\n    }\r\n\r\n    //setStatus => will set availability(0),verify(1) and fulfill(2) \r\n    //|-setAvailability => set the available status for the donor which denotes the donor donated blood \r\n    //|-setVerify => set verfied for the pure blood to be donated\r\n    //|-setFulfill => the end point of the donation where hospital has to mark it as received\r\n    function setStatus(address userAddress,uint8 _no) public {\r\n        if(_no==0||_no==1){\r\n             // Check if the user exists in the mapping\r\n            require(donors[userAddress].id != 0, \"User does not exist\");\r\n            // Update the isavailable field to true\r\n            // Update the isverified field to true\r\n            _no == 0 ? donors[userAddress].isavailable = true : donors[userAddress].isverified = true;\r\n        }\r\n        else if(_no==2){\r\n            // Ensure the donor has at least one donation history\r\n            require(donations[userAddress].length > 0, \"No donation history for this donor\");\r\n\r\n            // Update the Status of the most recent donation to 'received'\r\n            donations[userAddress][donations[userAddress].length - 1].Status = status.fullfilled;\r\n        }\r\n    }\r\n}\r\n",
  "sourcePath": "E:\\temp flutter\\final_year_project\\smartcontract\\contracts\\bloodlink.sol",
  "compiler": {
    "name": "solc",
    "version": "0.8.19+commit.7dd6d404.Emscripten.clang"
  },
  "schemaVersion": "3.4.16",
  "updatedAt": "2025-04-17T02:45:47.657Z",
  "networkType": "ethereum",
  "devdoc": {
    "kind": "dev",
    "methods": {},
    "version": 1
  },
  "userdoc": {
    "kind": "user",
    "methods": {},
    "version": 1
  }
}