{
  "contractName": "helper",
  "abi": [
    {
      "inputs": [
        {
          "internalType": "uint256",
          "name": "",
          "type": "uint256"
        }
      ],
      "name": "donorAddresses",
      "outputs": [
        {
          "internalType": "address",
          "name": "",
          "type": "address"
        }
      ],
      "stateMutability": "view",
      "type": "function"
    },
    {
      "inputs": [
        {
          "internalType": "string",
          "name": "_bg",
          "type": "string"
        }
      ],
      "name": "getBloodGroupEnum",
      "outputs": [
        {
          "internalType": "enum helper.bgrp",
          "name": "",
          "type": "uint8"
        }
      ],
      "stateMutability": "pure",
      "type": "function"
    },
    {
      "inputs": [
        {
          "internalType": "string",
          "name": "_ctry",
          "type": "string"
        }
      ],
      "name": "getCountryEnum",
      "outputs": [
        {
          "internalType": "enum helper.ctry",
          "name": "",
          "type": "uint8"
        }
      ],
      "stateMutability": "pure",
      "type": "function"
    },
    {
      "inputs": [
        {
          "internalType": "string",
          "name": "_st",
          "type": "string"
        }
      ],
      "name": "getStateEnum",
      "outputs": [
        {
          "internalType": "enum helper.state",
          "name": "",
          "type": "uint8"
        }
      ],
      "stateMutability": "pure",
      "type": "function"
    },
    {
      "inputs": [
        {
          "internalType": "string",
          "name": "_status",
          "type": "string"
        }
      ],
      "name": "getStatus",
      "outputs": [
        {
          "internalType": "enum helper.status",
          "name": "",
          "type": "uint8"
        }
      ],
      "stateMutability": "pure",
      "type": "function"
    },
    {
      "inputs": [
        {
          "internalType": "uint256",
          "name": "id",
          "type": "uint256"
        }
      ],
      "name": "getDonorAddressById",
      "outputs": [
        {
          "internalType": "address",
          "name": "",
          "type": "address"
        }
      ],
      "stateMutability": "view",
      "type": "function"
    }
  ],
  "bytecode": "0x608060405234801561001057600080fd5b50610e75806100206000396000f3fe608060405234801561001057600080fd5b50600436106100625760003560e01c806308e9bb0e14610067578063159e89251461009757806322b05ed2146100c75780632b2aee5d146100f75780636406fab114610127578063762dcf0b14610157575b600080fd5b610081600480360381019061007c9190610725565b610187565b60405161008e9190610793565b60405180910390f35b6100b160048036038101906100ac91906108f4565b61023e565b6040516100be91906109b4565b60405180910390f35b6100e160048036038101906100dc91906108f4565b6102db565b6040516100ee9190610a17565b60405180910390f35b610111600480360381019061010c9190610725565b61040b565b60405161011e9190610793565b60405180910390f35b610141600480360381019061013c91906108f4565b61044a565b60405161014e9190610a7a565b60405180910390f35b610171600480360381019061016c91906108f4565b6104e7565b60405161017e9190610add565b60405180910390f35b6000808211801561019d57506000805490508211155b80156101ad575060008080549050115b6101ec576040517f08c379a00000000000000000000000000000000000000000000000000000000081526004016101e390610b55565b60405180910390fd5b60006001836101fb9190610ba4565b8154811061020c5761020b610bd8565b5b9060005260206000200160009054906101000a900473ffffffffffffffffffffffffffffffffffffffff169050919050565b600080826040516020016102529190610c78565b6040516020818303038152906040528051906020012090507fafb612801c0c9f3c3a00f818ee652e98411618e2f8d2ae05988522d78f08fdeb810361029b5760009150506102d6565b6040517f08c379a00000000000000000000000000000000000000000000000000000000081526004016102cd90610cdb565b60405180910390fd5b919050565b600080826040516020016102ef9190610c78565b6040516020818303038152906040528051906020012090507f2304e88f144ae9318c71b0fb9e0f44bd9e0c6c58fb1b5315a35fd8b4b2a444ab8103610338576000915050610406565b7f60a73bfb121a98fb6b52dfb29eb0defd76b60065b8cf07902baf28c167d24daf8103610369576001915050610406565b7f414f72a4d550cad29f17d9d99a4af64b3776ec5538cd440cef0f03fef2e9e010810361039a576002915050610406565b7fd1e8aeb79500496ef3dc2e57ba746a8315d048b7a664a2bf948db4fa9196048381036103cb576003915050610406565b6040517f08c379a00000000000000000000000000000000000000000000000000000000081526004016103fd90610d47565b60405180910390fd5b919050565b6000818154811061041b57600080fd5b906000526020600020016000915054906101000a900473ffffffffffffffffffffffffffffffffffffffff1681565b6000808260405160200161045e9190610c78565b6040516020818303038152906040528051906020012090507fb1c01d00e7a2e21e637e7b0cc86ba6340f897e4d865d93b899e239a98ec935ed81036104a75760009150506104e2565b6040517f08c379a00000000000000000000000000000000000000000000000000000000081526004016104d990610db3565b60405180910390fd5b919050565b600080826040516020016104fb9190610c78565b6040516020818303038152906040528051906020012090507f649e021f9eaf39b06c5621c6be730ef1a7c07b4a330ebd65cb4cf3c1acbdc25b81036105445760009150506106d6565b7fc17e967cca5b13789a8b0a338b040ccb1a791c8d505c71d5136e55b08bb7703281036105755760019150506106d6565b7fa2db8fe985b37421b16c9e9e3b1df46340e047acf8d67ec05a8644f9613a540781036105a65760029150506106d6565b7f44fa10585a597ceaf9d3847bf86363375af8a38f2de54fa74435af057ddf5c6281036105d75760039150506106d6565b7ff18b6af3729594165f91de51beebb8b4a518cfb3a26999ca7bc197d830c1758081036106085760049150506106d6565b7f12cb627e789b83767f9dc7a45f7f04a31f6c72d94681a2de9e35cd946ddcd57f81036106395760059150506106d6565b7f522f90e612a5e4f0522d3b84e9b640076f0418ff2e3589a08cf537d7a728b871810361066a5760069150506106d6565b7f7cae0611df8360dfbfbd84094536d4fec2353ad543470bae669e07190d5b5b84810361069b5760079150506106d6565b6040517f08c379a00000000000000000000000000000000000000000000000000000000081526004016106cd90610e1f565b60405180910390fd5b919050565b6000604051905090565b600080fd5b600080fd5b6000819050919050565b610702816106ef565b811461070d57600080fd5b50565b60008135905061071f816106f9565b92915050565b60006020828403121561073b5761073a6106e5565b5b600061074984828501610710565b91505092915050565b600073ffffffffffffffffffffffffffffffffffffffff82169050919050565b600061077d82610752565b9050919050565b61078d81610772565b82525050565b60006020820190506107a86000830184610784565b92915050565b600080fd5b600080fd5b6000601f19601f8301169050919050565b7f4e487b7100000000000000000000000000000000000000000000000000000000600052604160045260246000fd5b610801826107b8565b810181811067ffffffffffffffff821117156108205761081f6107c9565b5b80604052505050565b60006108336106db565b905061083f82826107f8565b919050565b600067ffffffffffffffff82111561085f5761085e6107c9565b5b610868826107b8565b9050602081019050919050565b82818337600083830152505050565b600061089761089284610844565b610829565b9050828152602081018484840111156108b3576108b26107b3565b5b6108be848285610875565b509392505050565b600082601f8301126108db576108da6107ae565b5b81356108eb848260208601610884565b91505092915050565b60006020828403121561090a576109096106e5565b5b600082013567ffffffffffffffff811115610928576109276106ea565b5b610934848285016108c6565b91505092915050565b7f4e487b7100000000000000000000000000000000000000000000000000000000600052602160045260246000fd5b6001811061097d5761097c61093d565b5b50565b600081905061098e8261096c565b919050565b600061099e82610980565b9050919050565b6109ae81610993565b82525050565b60006020820190506109c960008301846109a5565b92915050565b600481106109e0576109df61093d565b5b50565b60008190506109f1826109cf565b919050565b6000610a01826109e3565b9050919050565b610a11816109f6565b82525050565b6000602082019050610a2c6000830184610a08565b92915050565b60018110610a4357610a4261093d565b5b50565b6000819050610a5482610a32565b919050565b6000610a6482610a46565b9050919050565b610a7481610a59565b82525050565b6000602082019050610a8f6000830184610a6b565b92915050565b60088110610aa657610aa561093d565b5b50565b6000819050610ab782610a95565b919050565b6000610ac782610aa9565b9050919050565b610ad781610abc565b82525050565b6000602082019050610af26000830184610ace565b92915050565b600082825260208201905092915050565b7f496e76616c696420646f6e6f7220494400000000000000000000000000000000600082015250565b6000610b3f601083610af8565b9150610b4a82610b09565b602082019050919050565b60006020820190508181036000830152610b6e81610b32565b9050919050565b7f4e487b7100000000000000000000000000000000000000000000000000000000600052601160045260246000fd5b6000610baf826106ef565b9150610bba836106ef565b9250828203905081811115610bd257610bd1610b75565b5b92915050565b7f4e487b7100000000000000000000000000000000000000000000000000000000600052603260045260246000fd5b600081519050919050565b600081905092915050565b60005b83811015610c3b578082015181840152602081019050610c20565b60008484015250505050565b6000610c5282610c07565b610c5c8185610c12565b9350610c6c818560208601610c1d565b80840191505092915050565b6000610c848284610c47565b915081905092915050565b7f496e76616c696420636f756e7472790000000000000000000000000000000000600082015250565b6000610cc5600f83610af8565b9150610cd082610c8f565b602082019050919050565b60006020820190508181036000830152610cf481610cb8565b9050919050565b7f496e76616c696420737461747573000000000000000000000000000000000000600082015250565b6000610d31600e83610af8565b9150610d3c82610cfb565b602082019050919050565b60006020820190508181036000830152610d6081610d24565b9050919050565b7f496e76616c696420737461746500000000000000000000000000000000000000600082015250565b6000610d9d600d83610af8565b9150610da882610d67565b602082019050919050565b60006020820190508181036000830152610dcc81610d90565b9050919050565b7f496e76616c696420626c6f6f6467726f75700000000000000000000000000000600082015250565b6000610e09601283610af8565b9150610e1482610dd3565b602082019050919050565b60006020820190508181036000830152610e3881610dfc565b905091905056fea2646970667358221220639b8ecd43068290b3445bd615b380689bcb7f5a3d37b7f3eff771022c5ec54064736f6c63430008130033",
  "immutableReferences": {},
  "source": "// SPDX-License-Identifier: MIT\r\n\r\npragma solidity ^0.8.19;\r\n\r\ncontract helper{\r\n    enum bgrp {ap, an, bp, bn, op, on, abp, abn}\r\n    enum ctry {india}\r\n    enum state {tamilnadu}\r\n    enum status{pending,shipped,received,fullfilled}\r\n    enum requestStatus {requested, approved, rejected, accepted, declined}\r\n    \r\n    address[] public donorAddresses;\r\n\r\n    function getBloodGroupEnum(string memory _bg) public pure returns (bgrp) {\r\n        bytes32 encodedStatus = keccak256(abi.encodePacked(_bg));\r\n        if (encodedStatus == keccak256(\"A+ve\")) {\r\n            return bgrp.ap;\r\n        } else if (encodedStatus == keccak256(\"A-ve\")) {\r\n            return bgrp.an;\r\n        } else if (encodedStatus == keccak256(\"B+ve\")) {\r\n            return bgrp.bp;\r\n        } else if (encodedStatus == keccak256(\"B-ve\")) {\r\n            return bgrp.bn;\r\n        } else if (encodedStatus == keccak256(\"O+ve\")) {\r\n            return bgrp.op;\r\n        } else if (encodedStatus == keccak256(\"O-ve\")) {\r\n            return bgrp.on;\r\n        } else if (encodedStatus == keccak256(\"AB+ve\")) {\r\n            return bgrp.abp;\r\n        } else if (encodedStatus == keccak256(\"AB-ve\")) {\r\n            return bgrp.abn;\r\n        } else {\r\n            revert(\"Invalid bloodgroup\");\r\n        }\r\n    }\r\n\r\n    function getCountryEnum(string memory _ctry) public pure returns (ctry) {\r\n        bytes32 encodedStatus = keccak256(abi.encodePacked(_ctry));\r\n        if (encodedStatus == keccak256(\"India\")) {\r\n            return ctry.india;\r\n        } else {\r\n            revert(\"Invalid country\");\r\n        }\r\n    }\r\n\r\n    function getStateEnum(string memory _st) public pure returns (state) {\r\n        bytes32 encodedStatus = keccak256(abi.encodePacked(_st));\r\n        if (encodedStatus == keccak256(\"Tamil nadu\")) {\r\n            return state.tamilnadu;\r\n        } else {\r\n            revert(\"Invalid state\");\r\n        }\r\n    }\r\n\r\n    function getStatus(string memory _status) public pure returns (status) {\r\n        bytes32 encodedStatus = keccak256(abi.encodePacked(_status));\r\n        if (encodedStatus == keccak256(\"p\")) {\r\n            return status.pending;\r\n        } else if(encodedStatus == keccak256(\"s\")){\r\n            return status.shipped;\r\n        } else if(encodedStatus == keccak256(\"r\")){\r\n            return status.received;\r\n        } else if(encodedStatus == keccak256(\"f\")){\r\n            return status.fullfilled;\r\n        } else {\r\n            revert(\"Invalid status\");\r\n        }\r\n    }\r\n    // Helper function to get donor address by ID\r\n    function getDonorAddressById(uint256 id) public view returns (address) {\r\n        require(id > 0 && id <= donorAddresses.length && donorAddresses.length > 0, \"Invalid donor ID\");\r\n        return donorAddresses[id - 1]; // Subtract 1 because IDs are 1-based.\r\n    }\r\n}",
  "sourcePath": "E:\\temp flutter\\final_year_project\\smartcontract\\contracts\\helper.sol",
  "compiler": {
    "name": "solc",
    "version": "0.8.19+commit.7dd6d404.Emscripten.clang"
  },
  "schemaVersion": "3.4.16",
  "updatedAt": "2025-04-17T02:44:30.097Z",
  "devdoc": {
    "kind": "dev",
    "methods": {},
    "version": 1
  },
  "userdoc": {
    "kind": "user",
    "methods": {},
    "version": 1
  }
}